:1000000029C700005FC700005DC700000C942120D5
:1000100059C7000057C7000055C7000053C700006C
:1000200051C700004FC700000C94F5260C94C2275E
:100030000C94222247C7000045C7000043C70000B8
:1000400041C700003FC700003DC700003BC700009C
:1000500039C700000C94C52235C7000033C7000023
:1000600031C700002FC700002DC700002BC70000BC
:1000700029C7000027C7000025C7000023C70000CC
:1000800021C700001FC700001DC700001BC70000DC
:1000900019C7000017C7000015C7000013C70000EC
:1000A00011C700000FC700000DC7000000040104C5
:1000B0000204030404040504000501050205030508
:1000C00004050505000601060206030604060506EA
:1000D00000070107020703070407050700000100E6
:1000E00002000300040005000001010102010301F8
:1000F00004010501000201020202030204020502DA
:10010000000301030203030304030503716D6B2065
:10011000636F6D70696C65202D6B62206B6C6F7204
:10012000202D6B6D2064656661756C7400000000A5
:1001300000000000000000000000000000000000BF
:1001400000000000000000000000000000F0F0F0DF
:10015000F0FFFFFFFFFFFFFFFFFFFFFFFFFFFFFFBE
:10016000FFFFFFFFFFFFFFFFFFFFFFFFFFFFFFFF9F
:10017000FFFFFFFFFFFFFFFFFFFFFFFFFFFFFFFF8F
:10018000FFFFFFFFFFFFFFFFFFF0F0F0F0000000B8
:10019000000000000000000000000000000000005F
:1001A000000000000000000000000000000000004F
:1001B000000000000000000000000000000000003F
:1001C00000000000000000000000000000FFFFFF32
:1001D000FFFFFFFFFFFFFFFFFFFFFFFFFFFFFFFF2F
:1001E000FFFFFFFFFFFFFFFFFFFFFFFFFFFFFFFF1F
:1001F000FFFFFFFFFFFFFFFFFFFFFFFFFFFFFFFF0F
:10020000FFFFFFFFFFFFFFFFFFFFFFFFFF000000FB
:1002100000000000000000000000000000000000DE
:1002200000000000000000000000000000000000CE
:10023000000000000000000000F0F0F0F0FFFFFF01
:10024000FFFFFFFFFFFFFFFFFFFFFFFFFFFFFFFFBE
:10025000FFFFFFFFFF0F0F0F0F0000000000000067
:10026000000F0F0F0FFFFFFFFFFFFFFFFFFFFFFF5D
:10027000FFFFFFFFFF0F0F0F0F0000000000000047
:10028000000F0F0F0FFFFFFFFFFFFFFFFFFFFFFF3D
:10029000FFFFFFFFFFFFFFFFFFFFFFFFFFF0F0F09B
:1002A000F00000000000000000000000000000005E
:1002B000000000000000000000FFFFFFFFFFFFFF45
:1002C000FFFFFFFFFFFFFFFFFFFFFFFFFFFFFFFF3E
:1002D000FFFFFFFFFFF0F0F0F00000000000000063
:1002E00000F0F0F0F0FFFFFFFFFFFFFFFFFFFFFF59
:1002F000FFFFFFFFFFF0F0F0F00000000000000043
:1003000000F0F0F0F0FFFFFFFFFFFFFFFFFFFFFF38
:10031000FFFFFFFFFFFFFFFFFFFFFFFFFFFFFFFFED
:10032000FF000000000000000000000000000000CE
:10033000000000000000000000FFFFFFFFFFFFFFC4
:10034000FFFFFFFFFFFFFFFFFFFFFFFFFFFFFFFFBD
:10035000FFFFFFFFFFFFFFFFFFFFFFFFFFFFFFFFAD
:10036000FFFFFFFFFF0F0F0F0F0F0F0F0F0F0F0FED
:100370000F0F0F0F0FFFFFFFFFFFFFFFFFFFFFFF3D
:10038000FFFFFFFFFFFFFFFFFFFFFFFFFFFFFFFF7D
:10039000FFFFFFFFFFFFFFFFFFFFFFFFFFFFFFFF6D
:1003A000FF0000000000000000000000000000004E
:1003B0000000000000000000000F0F0F0FFFFFFF04
:1003C000FFFFFFFFFFFFFFFFFFFFFFFFFFFFFFFF3D
:1003D000FFFFFFFFFFFFFFFFFFFFFFFFFFFFFFFF2D
:1003E000FF0F0F0F0F00000000F0F0F0F0F0F0F042
:1003F000F0000000000F0F0F0FFFFFFFFFFFFFFFD8
:10040000FFFFFFFFFFFFFFFFFFFFFFFFFFFFFFFFFC
:10041000FFFFFFFFFFFFFFFFFFFFFFFFFF0F0F0FBC
:100420000F000000000000000000000000000000BD
:1004300000000000000000000000000000000000BC
:1004400000000000000000000000000000FFFFFFAF
:10045000FFFFFFFFFFFFFFFFFFFFFFFFFF0F0F0F7C
:100460000F00000000F0F0F0F0FFFFFFFFFFFFFFC4
:10047000FFF0F0F0F0000000000F0F0F0FFFFFFF84
:10048000FFFFFFFFFFFFFFFFFFFFFFFFFF00000079
:10049000000000000000000000000000000000005C
:1004A000000000000000000000000000000000004C
:1004B000000000000000000000000000000000003C
:1004C00000000000000000000000000000FFFFFF2F
:1004D000FFFFFFFFFFFFFFFFFFFFFFFFFFF0F0F059
:1004E000F0F0F0F0F0FFFFFFFFFFFFFFFFFFFFFF67
:1004F000FFFFFFFFFFF0F0F0F0F0F0F0F0FFFFFF84
:10050000FFFFFFFFFFFFFFFFFFFFFFFFFF000000F8
:1005100000000000000000000000000000000000DB
:1005200000000000000000000000000000E1E1E128
:10053000E1E1E1E1E1E1E1E1008F9000939400E18C
:10054000E100919200A0A1A2A3A4E100B7B800B578
:10055000B6008081828384E100E1E1E1E1E1E1E153
:10056000E1E1E1E1E1E100979800959600C0C0C0AB
:10057000C0C0C0C0C0C0C0C0C0C0C0C0C0C0C0C07B
:10058000C0C000000014001A000800150017002B5E
:100590000004001600070009000A004C001D001BA3
:1005A000000600190005000000E000027E2C00E2B9
:1005B00000A8000000130012000C0018001C0034FA
:1005C0000033000F000E000D000B00E5003800376F
:1005D0000036001000110000002A00037E2800E30E
:1005E00000AE00000014001A00090013000A002BDE
:1005F000000428152416211722070014001D001BD3
:100600000006001900050000004C00027E2C0029A5
:1006100000E100000033001C0018000F000D003442
:100620000012280C24082111320B00310038003749
:1006300000360010000E0000002A00037E2800E3B0
:1006400000AE0000003900530052002E002F022996
:10065000004A00500051004F002F0000004D004B99
:100660000016014E002602000001000100010001F9
:1006700000A80000005700610060005F00300234F5
:10068000022D005E005D005C003000010055005B43
:10069000005A005900270200006200010001000119
:1006A00000AE0000001E021F0220022102220200F2
:1006B000000000000000000000000000000000003A
:1006C0000000000000000000000100010001000126
:1006D00000A8000000310020141814240223020096
:1006E000000000000000000000000000000000000A
:1006F00000000000000000000001000100010001F6
:1007000000AE0000008274427C2378217800000053
:100710007C027C007E257800000000067E057E01BC
:100720007E277800000000000001000100010001A8
:1007300000A800000069004200410040000000687D
:100740000045003F003E003D000000440043003CE7
:10075000003B003A00000000000100010001000120
:1007600000AE0000AE00AF00DA1281FFD9F1DB204D
:10077000A4A62EAF00A0C000A1C800AED580A83F9F
:10078000D300408D1420000000000000003E5B4FAD
:100790005B3E003E6B4F6B3E001C3E7C3E1C0018D7
:1007A0003C7E3C18001C577D571C001C5E7F5E1C65
:1007B0000000183C180000FFE7C3E7FF0000182402
:1007C000180000FFE7DBE7FF0030483A060E00267E
:1007D0002979292600407F05050700407F05253F30
:1007E000005A3CE73C5A007F3E1C1C0800081C1CB9
:1007F0003E7F0014227F2214005F5F005F5F0006CF
:10080000097F017F00006689956A00606060606012
:100810000094B6FFB69400080C7E0C080010307EE1
:1008200030100008083E1C0800081C3E0808001E86
:1008300010101010000C1E0C1E0C0030383E38300A
:1008400000060E3E0E060000000000000000005FE3
:10085000000000000700070000143E143E14002EA4
:100860002A7F2A3A002012082402003749493750CB
:1008700000000807030000001C2241000000412284
:100880001C00002A1C7F1C2A0008083E08080000E3
:100890008070300000080808080800000060600050
:1008A000002010080402007F5149457F000804021F
:1008B0007F0000714949494F004141494977000F84
:1008C0001010107F004F49494971007E4949497015
:1008D0000001017109070077494949770007494933
:1008E000493F0000001400000000403400000000F8
:1008F0000814224100141414141400004122140896
:1009000000010159090F007F415D594F007F09091E
:10091000097F007F49494976007F41414141007F7D
:100920004141417E007F49494949007F0909090940
:10093000007F4141497B007F0808087F0000007F5D
:10094000000000704040407F007F08080877007F6B
:1009500040404040007F011F017F007F0408107F5E
:10096000007F4141417F007F0909090F007F4171EC
:10097000417F007F0909196F004749494979000102
:10098000017F0101007F4040407F001F2040201F69
:10099000007F407F407F007708080877004F484875
:1009A000487F00615149454300007F4141000002FA
:1009B00004081020000041417F00000402010204ED
:1009C00000404040404000000007080000605454D0
:1009D000547C007F44444478007C44444444007880
:1009E0004444447F007C5454545C00087F09090946
:1009F0000038A4A4A4FC007F040404780000007D57
:100A00000000007040407D00007F0808087600006C
:100A1000007F4000007C047C047C007C040404789B
:100A2000007C4444447C00FC2424243800382424E2
:100A300024FC007C04040404005C5454547400043A
:100A4000047F0404007C4040407C001C2040201CAB
:100A5000007C407C407C006C1010106C00BCA0A09E
:100A6000A0FC004464544C440000083641000000DF
:100A70000077000000004136080000020102040275
:100A8000003C2623263C000000E0F0F0F0F0FEFFE2
:100A90009F0F0F9FFFFFFFFF9F0F0F9FFFFEF0F0C5
:100AA000F0F0E00000FF000000000000C0300C0388
:100AB00000000000FF0000000000000000E010083F
:100AC00004020202010101010101020202040810F4
:100AD000E000000000FF010101010101010101012D
:100AE000FF7F515555457F415F5F5F7F007F417BB1
:100AF00077417F415F5F5F7F007F415D5D5D7F414B
:100B00005F5F5F7F00C0E0F0F0F0E0E6F7F3F060D9
:100B1000007C7C7C7C7C007C7C7C7C7C00F81CDE0B
:100B20001FFFFFFF1FDE1CF800C0E2B4F8F8F8F862
:100B3000F8B4E2C000000000000000000000000067
:100B4000000000000000000000070F0F0F0FFFFF64
:100B5000FFFF9F87E1F9F9E1879FFFFFFFFF0F0F7D
:100B60000F0F070000FF0000C0300C33C000000072
:100B700000000000FF000000000000003FC0000077
:100B80000000000000000000000000000000000065
:100B9000C03F000000FF08080808080838C8080817
:100BA0000F7E00007F00007800007E0000242412E9
:100BB00012242448482424121200000000000000DF
:100BC00000000000000F1F3F7F7F3F3F7F7F3810F6
:100BD000001F1F1F1F1F001F1F1F1F1F000F14219B
:100BE000404541454021140F007D7D7D7D7D7D7D0B
:100BF0007D7D7D7D00000000000000000000000001
:100C000000000000000000080808080808000000B4
:100C100000000000000000000000000000000000D4
:100C200000000000003F0C030000000000030C3037
:100C3000000000003F20202020202020200102046E
:100C4000081010102020202020201010100804026E
:100C500001000000003F0000000000000000030C45
:100C6000304000004000004000004000001C3E3EBC
:100C70003E1C003E1C1C0808003E3E3E3E3E00005E
:100C80000000000000000000000000000000000064
:100C90000000000000000000000000000000000054
:100CA0000000000000000000000000000000000044
:100CB0000000000000000000000000000000000034
:100CC0000000000000000000000000000000002AFA
:100CD0002B280000000000000000000000000000C1
:100CE000000029000000002C1E342021222434267C
:100CF00027252E362D3738271E1F20212223242575
:100D0000263333362E37381F0405060708090A0B29
:100D10000C0D0E0F101112131415161718191A1B9B
:100D20001C1D2F3130232D350405060708090A0B39
:100D30000C0D0E0F101112131415161718191A1B7B
:100D40001C1D2F3130354C00000000000000000059
:100D50000000000000000000000000000000000093
:100D600000000000000000000000007E0F00D4FF23
:100D7000FFFFC7000000780A034B004C004F0052F1
:100D80000000000C034700450049005300540000D8
:100D9000000403090409023B00020100A0FA09044F
:100DA000000001030101000921110100012240009E
:100DB0000705810308000109040100010300000088
:100DC00009211101000122320007058203200001E0
:100DD00012010002000000083C3A0100300101024B
:100DE000000105010980A101850319012AB7001539
:100DF0000126B700950175108100C0050C0901A1FD
:100E000001850419012AA002150126A00295017589
:100E1000108100C005010906A101050719E029E7B5
:100E2000150025019508750181029501750881015C
:100E30000507190029FF150026FF00950675088192
:100E4000000508190129059505750191029501759F
:100E5000039101C011241FBECFEFDAE0DEBFCDBF8A
:100E600004B603FE18C08091940790919507A09155
:100E70009607B09197078730904BA740B04B59F435
:100E80001092940710929507109296071092970768
:100E9000E0E0F8E3099512E0A0E0B1E0EAEBF4E568
:100EA00002C005900D92AE30B107D9F727E0AEE051
:100EB000B2E001C01D92A439B207E1F70E942E19D9
:100EC0000C943E2A9DC882E0089508950895CF931A
:100ED00060E08DE695E00E94DE1A8091680360E094
:100EE00080FF55C08AE695E00E94CD1A60E089E552
:100EF00095E00E94CD1A60E082E595E00E94CD1A4F
:100F00008091680360E080FF45C08FE495E00E9417
:100F1000CD1A60E089E595E00E94CD1A60E085E495
:100F200095E00E94CD1A60E08DE695E00E94DE1A01
:100F30000E944F21C82F60E082E495E0C0FD02C00E
:100F40008FE395E00E94CD1A60E08CE395E0C1FD4F
:100F500002C08FE395E00E94CD1A60E089E395E03E
:100F6000C2FD02C08FE395E00E94CD1A60E08DE2E1
:100F700095E00E94CD1A60E08FE395E00E94CD1AC3
:100F800060E08FE395E00E94CD1ACF91089587E647
:100F900095E0AACF8CE495E0BACFCF93DF93EC0134
:100FA000209150023091510280915202909153024F
:100FB000822B932B9FD16EE571E08230A1F058F423
:100FC00065E471E0882379F062E571E0813059F0E1
:100FD00061E771E008C064E671E0833021F06AE601
:100FE00071E08430A9F78BE493E00E94FC298091A2
:100FF0001002909111021816190634F06BE473E098
:1010000082E192E00E94FC2924E043E062E0CE010C
:10101000F5D0DF91CF9108950E94461C882351F0AE
:101020000E94AB16882341F060E082E192E00E94CA
:10103000C91A4DDF80E0089560E074E08DE291E030
:101040000E94E21AF7CFCF939E578730910508F0A0
:1010500049C0FC01E05CF54DDB011296CC910C948B
:10106000A029CC23A1F08091680380FD0EC081608F
:101070008093680380916703909168030E949E119A
:10108000BCD4C0E08C2FCF9108958E7FF1CFCC23BC
:10109000C9F381E0A2D0F5CF80E0CC2399F3FACF59
:1010A00082E0CC2341F040D544E063E082E0CBD045
:1010B000E8CF83E0F6CF47D544E063E082E0C3D0D9
:1010C000E1CF84E0CC2311F02FD5DBCF3CD5DACFB4
:1010D000CC2341F060E08CE091E00E94D71C88E2D4
:1010E000A2D2D0CFC1E0CECFCF93C62F811108C0FE
:1010F00089EAC11101C08AEA96D281E0CF910895B0
:101100008130D9F782E0FED4882391F38BEAC111B4
:10111000F3CF8CEAF1CF8530B8F46830A8F44630CC
:1011200098F450E096E0699F400D511D1124FA019A
:1011300090E3899FE00DF11D1124EE0FFF1FED5785
:10114000FA4F85919491089580E090E00895E3CF5F
:10115000089581E0089577CF08950895FECF08950A
:10116000A5E0B0E0E6EBF8E00C94B52949835A839A
:101170003091350289819A81311116C0662389F038
:10118000222379F08FD5182F682F89819A8168D50D
:1011900069817A81812F0E94C2132596E3E00C9425
:1011A000D1296FD5182FF4CF7DD569817A81F3CFFE
:1011B000FC01262F40815181628173818481D0CFCF
:1011C000089581E00895CF93DF93EC0160E0F0DFB4
:1011D000BE01C4DFDF91CF910895CF93DF93C1E0CB
:1011E000D0E002C0CC0FDD1F8A95E2F78C2F0E9461
:1011F0009311CE014FD4DF91CF910895E1E0F0E05B
:10120000DF0102C0AA0FBB1F6A95E2F7BD01DF0133
:1012100002C0AA0FBB1F4A95E2F7AD01462B572B20
:1012200002C0EE0FFF1F2A95E2F79A012823392307
:101230002417350719F48E2B9F2B0895E095F09510
:101240008E239F230895242F462F682F80915002CC
:1012500090915102D3DF38C408950C940F1508956E
:101260000C94111508950895C8D3FDDF2FEF84E382
:101270009CE0215080409040E1F700C000000895BC
:10128000F3DF0C94E9220895EFDF0C940D23089509
:101290000F931F93CF93DF93EC0161E089DF8C0103
:1012A000BE0159DF882381F08A818823B1F00130A3
:1012B0008CE7180781F003308CE7180751F001150F
:1012C0001C4759F4DDDF80E0DF91CF911F910F9132
:1012D00008950E947711D8DFF6CFCE013ADFF4CF20
:1012E0000E94032246D00C94291C089545D00C94EA
:1012F00007220895292F332740E02115310511F0E9
:10130000C90148E09C0164E0369527956A95E1F7AC
:101310002115310511F04C5FC9019C0136952795C7
:10132000369527952115310511F04E5FC901969527
:101330008795892B09F04F5F842F08950895FECF7C
:10134000089581E008950895CF93DF93D82FF9DFB2
:10135000C82F882311F08D2FF6DF8C2FDF91CF91CE
:1013600008950895CF93C82FEADF8C2FEDDFCF913A
:10137000089580E0F7CF08950E943B21F3CF0895B0
:10138000CF930E943B21C82F80912A028C1771F0C5
:10139000C0932A020E948E2260932B0270932C022B
:1013A00080932D0290932E028C2FDCDFCF91089535
:1013B000442319F08091370208959C0143E036954B
:1013C00027954A95E1F7620F731F8770992721E0EF
:1013D00030E001C0220F8A95EAF7FB019081922349
:1013E00081E009F480E00895FC01E770FF2721E027
:1013F00030E001C0220FEA95EAF733E09695879531
:101400003A95E1F7FB01E80FF91F8081442319F0B9
:10141000282B2083089520952823FBCF0F931F931B
:10142000CF93DF938C01DC0111968C91119788305A
:1014300038F5CC91C63020F5D0E0B6E08B9FC00DDA
:10144000D11D1124F80142816FE272E0CE01B0DFBC
:1014500040E0882389F0CE01880F991FFC01E355F5
:10146000FF4FE491D8011196EC931197FC01E455DC
:10147000FF4FE491EC9341E06FE272E0CE01B4DF04
:10148000DF91CF911F910F910895ABE0B0E0EBE4B5
:10149000FAE00C94B6294F83588769877A878B873F
:1014A000611122D78A859B85892B29F08F819885A8
:1014B00089238F3F29F51E821D8285E0FE01379624
:1014C000DE01119601900D928A95E1F78C819D8144
:1014D000892B59F449815A816B817C818D819E8150
:1014E00019D62B96E2E00C94D22989819A8189231E
:1014F0008F3F81F3CE01019664DE8111EBCFF1CFF6
:10150000CE0107968BDFD7CFFC0180819181FBD381
:1015100092959F70963051F4863F41F0809137024A
:1015200091E0892780933702909336020895CF93F4
:10153000C82F882399F08CEF8C0F813A88F46C2F98
:1015400080910001909101010E94A621882319F049
:101550008C2F71D67FD68C2F66D67CD6CF910895EE
:1015600080E28C0F883040F4C77081E001C0880FA2
:10157000CA95EAF79CD6F1CFEBE5EC0FE33040F4E7
:10158000F0E0E655FE4F808190E00E945C21E6CFBE
:10159000C85AC93118F7EC2FF0E0EE0FFF1FE858DA
:1015A000FE4F808191810E948121D8CF882321F133
:1015B0009CEF980F913A18F43ED64CC6089590E2ED
:1015C000980F983048F4877091E001C0990F8A9580
:1015D000EAF7892F72D6F1CF9BE5980F933028F464
:1015E00090E080E00C945C210895885A893120F4C1
:1015F00090E080E00C94812108951F93CF93DF93B6
:10160000182FEB0194DF209731F4812FCFDFDF918A
:10161000CF911F9108958FE99FE00197F1F700C0E6
:1016200000002197F0CF70E060E0893311F460E5AD
:1016300070E0E3CF0895882311F039D60BC60895E2
:10164000882311F03AD606C60895EF92FF920F93C1
:101650001F93CF93DF937C01C62FFC01228135813C
:1016600032953F70872F82958F70082F10E08C3055
:1016700058F5F801E95BF54D0C94A029D72FDF70E0
:10168000707F11F0D295D07F222389F0DD2349F0BD
:1016900080E28C0F883010F0C11106C08D2F07D664
:1016A000D9D58C2F44DF10C08D2F11D6F9CF8C2FB8
:1016B0007DDFDD2349F080E28C0F883010F0C1110E
:1016C00010C08D2FFAD5C6D5085011090430110568
:1016D00018F40E943B2146DECDB7DEB7E6E00C945D
:1016E000CE298D2FFAD5EFCF872F8F70707F703274
:1016F00011F08295807FC13051F4222321F03630E1
:1017000018F799DFE1CF3530F8F69ADFDDCF2223E5
:1017100019F03323B1F3C5CF3323B9F3C93349F4F7
:10172000FFEF27EE83E0F15020408040E1F700C05A
:1017300000008C2F3BDFC8CF872F8695869583705E
:1017400069F0813009F0C0CF862F972F9370211157
:1017500002C080E090E00E948121B6CF862F972FB3
:101760009370211102C080E090E00E945C21ACCF18
:10177000872F837081F52111A7CF462F429546957B
:101780004770440F440F262F2F7030E0042E02C004
:10179000220F331F0A94E2F790E080E064FF09C053
:1017A0008FE090E002C0880F991F4A95E2F780957C
:1017B0009095769576957370822B932B723039F0D5
:1017C00040F4713011F070D17FCF66D17DCF74D1EC
:1017D0007BCF60D179CF8695222311F0872F81703E
:1017E000882309F471CF4C2F429546954770440FDA
:1017F000440F2C2F2F7030E0042E02C0220F331F15
:101800000A94E2F790E080E0C4FF09C08FE090E026
:1018100002C0880F991F4A95E2F7809590957695BA
:1018200076957370822B932B723039F040F47130BF
:1018300011F0B1D149CFA7D147CFB5D145CF44D1D0
:1018400043CFD72FDF70222321F08D2F6DD18C2F26
:1018500058CF862FF5DE8D2F76D136CF613F09F137
:1018600048F4603F89F0222349F131111ACF872FC4
:101870008F711BC0623FD9F0633FA9F72223E1F0CB
:10188000872F8F7146D120CF222339F0353008F0D1
:101890001BCF872F8F7168D117CF363008F014CF48
:1018A000F8CF872F8F712223B9F23ED10DCF872F2A
:1018B0008F712223D1F3D0CF0DD106CF332359F02E
:1018C000C93309F036CF9FEFE7EEF3E09150E040E7
:1018D000F040E1F72CCF872F8F71BECF623F99F197
:1018E000E8F4603F21F1613FB1F18091360233238A
:1018F00009F43DC0882341F08091370291E08927A7
:1019000080933702109236028C2F2111CBCE4EDEFF
:1019100086E0F70111928A95E9F7D6CE643FB1F0DF
:1019200080F0653F11F72111CFCE81E007C022235F
:1019300009F4CACE8091370291E08927809337025B
:10194000C3CE81E0282720933702BECE2111BCCE22
:1019500010923702B9CE222339F0809136028823C3
:1019600049F310923602B0CE353020F3ADCE882345
:1019700009F4AACE2111A8CE8091370291E08927DF
:1019800080933702EECF0F931F93CF93DF93EC0139
:10199000688179818A81C0D18C010DD17AD0B8015A
:1019A000CE0153DEDF91CF911F910F910895CF9318
:1019B000DF93EC018B819C81892B29F088819981AF
:1019C00089238F3F19F4DF91CF910895CE0160DC18
:1019D0008823C9F3CE01D7DFCE01F5DBF4CF90E049
:1019E00080E00E945C2190E080E00E9481217CD414
:1019F00031C4089528D4F3CF089566D4FBCF089559
:101A000092959F70963091F058F4925F9F7092304B
:101A100058F4803F19F030F4883E30F481E00895A6
:101A20009A5FF4CF843FD1F380E00895883EB0F30D
:101A3000813FD1F7F3CFFC0183819481892B29F079
:101A40008081918189238F3F11F480E00895808106
:101A5000918159D1D5CF0895A5E0B0E0E2E3FDE052
:101A60000C94B6292596E2E00C94D229A6E0B0E0C9
:101A7000ECE3FDE00C94B6292696E2E00C94D22922
:101A80000895FECF0895FDDF909353028093520294
:101A900008950895F8CF089520915202309153028D
:101AA000822B932BF0CF0895209152023091530254
:101AB00082239323E8CF089520915202309153025C
:101AC00082279327E0CF089568DA9093510280939C
:101AD0005002089590E080E0F7CF0895009729F430
:101AE00081E0662371F080E00CC021E030E002C0AC
:101AF000220F331F6A95E2F72823392381E0232B35
:101B000091F30895682F8091500290915102E6CF91
:101B1000089521E030E0A90102C0440F551F8A95C5
:101B2000E2F7CA01D1CF089521E030E002C0220FD0
:101B3000331F8A95E2F78091500290915102822BD7
:101B4000932BC2CF089521E030E002C0220F331F53
:101B50008A95E2F72095309580915002909151023C
:101B600082239323B1CF089521E030E002C0220FF9
:101B7000331F8A95E2F7809150029091510282279B
:101B80009327A2CF08952091500230915102822BC9
:101B9000932B9ACF089520915002309151028223C5
:101BA000932392CF089520915002309151028227C1
:101BB00093278ACF08950895262F277091E001C0BA
:101BC000990F2A95EAF723E0769567952A95E1F72C
:101BD000660F771F660F771FFA01E60FF71F50E0B9
:101BE00040E0682F70E08191DF0111979B01042E86
:101BF00002C0369527950A94E2F72170219528278F
:101C0000292328272C934F5F5F4F4430510559F704
:101C10000895A82FA77023E0969587952A95E1F758
:101C2000880F991F880F991FFB01E80FF91F50E0DB
:101C300040E080E0219130E00A2E02C036952795E1
:101C40000A94E2F721703327042E01C0220F0A9470
:101C5000EAF7822B4F5F5F4F4430510559F70895E3
:101C6000262F983068F4863058F4682F70E086E0AC
:101C7000989F600D711D112448E352E0822F9CCF84
:101C80000895292F983060F4863050F490E068E38E
:101C900072E036E0239F800D911D1124BACF089584
:101CA00080E00895B0E0A0E0E8E5FEE00C94AF2904
:101CB0007C0100915002109151028091520290914A
:101CC0005302082B192BCFE0D0E0CC24C394D12CA5
:101CD000BC2EC6010C2E02C0880F991F0A94E2F791
:101CE00080239123892B49F4219790F7B12C8B2DD8
:101CF000CDB7DEB7E9E00C94CB29B7018C2F4ED5D8
:101D0000019791F3F4CFCF93DF93EC01CBDFBE01CA
:101D100045D5DF91CF9108951F93CF93DF93EB01CA
:101D200090913502992331F0CB01EDDFDF91CF9116
:101D30001F910895882351F0CB01B4DF182F682F2D
:101D4000CE018EDFBE01812F29D5F0CFCB0199DFE7
:101D5000182FF8CF1F93CF93DF93C091540216E052
:101D6000809155028C1304C0DF91CF911F9108958B
:101D7000D0E01C9FF0011D9FF00D1124EA5AFD4F89
:101D80004081518162817381848195816FDE2196CA
:101D9000C770E6CF40918602509187026091880219
:101DA0007091890280918A0290918B025FCE089592
:101DB0001F93CF93DF9380918B02807F09F047C000
:101DC00080918802882309F442C080915402C09116
:101DD00055026091860270918702A0918902B091AC
:101DE0008A02D62FD72316E0C81789F190E0109702
:101DF00011F0DF3F19F401968770F6CF189F90011C
:101E0000199F300D1124F901EA5AFD4F4181471302
:101E1000F2CF40814613EFCF42814111ECCF438195
:101E200054814A1B5B0B4A3A510528F780918B027B
:101E30008F70806180938B02F901E55AFD4F80819C
:101E40008F708061808386E892E0B1DD83DFDF916F
:101E5000CF911F910895A1E1B0E0E1E3FFE00C9480
:101E6000AE298C0185E0F801DE011D9601900D92EE
:101E70008A95E1F7F801E28086E8C82E82E0D82E44
:101E80006091890270918A026115710509F429C176
:101E90009091860220918702892F82238F3F09F437
:101EA00020C140815181A380B480F0908802F50167
:101EB000E61BF70BFF2009F4E8C080918B02382F56
:101EC000307FEA3AF10508F0A6C0311169C0FE2C56
:101ED000251314C0941312C0E11010C08F708061DC
:101EE00080938B0257DFC60162DD80918B02F8017F
:101EF00085838F2D6196EAE00C94CA29A114B10460
:101F000029F0842F85238F3F09F001C180E0F82F4D
:101F1000F170DF2E80FF3AC080915402209155026B
:101F200036E0821314C04D875E878D859E85EBDE7B
:101F3000292F22952F702230F0F0243018F59F7051
:101F4000F1F0F8019581907FD1F4D12C1DC090E083
:101F5000389FF001399FF00D1124EA5AFD4F61813D
:101F6000651306C06081641303C06281E6120EC06F
:101F700001968770D6CF9F7011F0882331F3805E71
:101F8000883018F3C80113DDFD2CB3CFEE2009F41F
:101F9000B0CF80918B02816080938B02F12CA9CF0E
:101FA000251312C0941310C0E1100EC0F8018583F0
:101FB000C801FDDC86E0F801A6E8B2E001900D92D0
:101FC0008A95E1F7E7DE95CFC80135DD882301F179
:101FD000EE20F1F080918B02803268F02091860231
:101FE0003091870238872F831986BB86AA868C8713
:101FF000CE010796DCDC86E0F801A6E8B2E00190AD
:102000000D928A95E1F7D4DEC5DEFF24F39471CFFB
:10201000C801CDDCFACF311110C07A2DB98AA88A57
:102020006E2D898919DD86E892E0C1DC86E0F60133
:1020300011928A95E9F7AEDEB1CF25130EC0941345
:102040000CC0E1100AC0F8018583C801B0DC86E04D
:10205000F60111928A95E9F74CCFC801ECDC882390
:10206000B9F2EE20A9F280918B02803208F4C3CF3E
:1020700020918602309187023A8329831B82BD8298
:10208000AC828E83CE010196B5CFEA3AF105E8F431
:10209000FE2CEE2009F4BCCF25130BC0941309C00D
:1020A00086E0F801A6E8B2E001900D928A95E1F78A
:1020B00020CFC801C0DC81119ECF80918B0281604E
:1020C00080938B02C80173DC14CF7A2DB98AA88A59
:1020D0006E2D8989C1DC86E0F60111928A95E9F7B7
:1020E00071CFEE2009F494CFC801A5DCF82E882327
:1020F00009F48ECF86E0F801A6E8B2E001900D92D7
:102100008A95E1F786E892E0FFD952DE5BCF81E065
:102110008E25FDCEACE0B0E0E0E9F0E10C94B5290D
:102120004F83588769877A878B879C87CE0107966C
:1021300092DE882369F08A859B85892B39F04F814F
:102140005885842F85238F3F09F067C016E05BC058
:1021500086E0FE013796DE01119601900D928A9578
:10216000E1F78A859B85892B89F38F81988589235F
:102170008F3F61F32091550230E0C90101968770CD
:102180009927409154024817190669F436DC1092D9
:1021900055021092540286E0E6E8F2E0DF011D925B
:1021A0008A95E9F7D3CF96E0929FD001939FB00D27
:1021B0001124AA5ABD4FFE01319601900D929A95B5
:1021C000E1F780935502C6DDC1CF819FC001112484
:1021D0008A5A9D4F40DE8823E1F0E09154021E9F11
:1021E000F0011124EA5AFD4F4081518162817381CF
:1021F000848195813BDC8091540290E00196877048
:10220000992780935402809154029091550289132A
:10221000DCCF2C96E3E00C94D12969857A858B85F7
:102220009C8524DC93CF682F80910001909101015F
:102230000C94DC210895682F809100019091010198
:102240000C94DE21089580910001909101010C947D
:10225000E0210895CF93DF93E0910001F091010117
:1022600080919D028083E0910001F09101018081C5
:1022700090919C02892B8083C0910001D091010133
:1022800048E050E06CE872E0CE010E94E629892B1C
:1022900059F088E0FE01ACE8B2E001900D928A9519
:1022A000E1F7CE010E945121DF91CF9108959091E5
:1022B0009D02892B80939D020895809590919D02A7
:1022C000982390939D02089510929D0208959091F5
:1022D0009C02892B80939C020895809590919C028A
:1022E000982390939C02089510929C0208956FEF9A
:1022F0007FEF90E080E00C942A2A089590E080E03F
:102300000E940B2A21E0873E9E4F09F020E0822F99
:10231000089582E090E00C94032A089583E090E011
:102320000C94032A0895682F83E090E00C94102AFF
:10233000089584E090E00C940B2A0895BC0184E099
:1023400090E00C942A2A0895AB01BC018FE090E044
:102350000C94222A0895AB01BC0183E190E00C9417
:10236000222A089560E070E0CB01F5CF089560E087
:1023700070E0CB01E9DFF6CF089567EE7EEF90E0E5
:1023800080E00E942A2A60E082E090E00E94102A09
:1023900060E083E090E00E94102A109253021092B5
:1023A000520260E074E184E090E00E942A2A60E03A
:1023B00086E090E00E94102A6FEF87E090E00E9494
:1023C000102A40E050E0BA0188E090E00E94222A02
:1023D00060E08DE090E00E94102A40E050E0BA01F9
:1023E00088E190E00E94222A60E087E190E00E946C
:1023F000102A40E050E0BA018CE190E00E94222ACD
:1024000070E060E080E290E00E942A2A40E050E024
:10241000BA0188E190E00E94222AA9CF0895ADCFA9
:1024200008950E948E226093B0027093B10280934F
:10243000B2029093B3026093AC027093AD028093AA
:10244000AE029093AF0208950E948E226093B00274
:102450007093B1028093B2029093B3026093A8028A
:102460007093A9028093AA029093AB0208950895F5
:102470000895FECF08950C946507089584EF94E1C4
:102480000E943121F4DFF5CF089565C408950895C1
:102490000895FDDFFDCF0895AAD20C94B1090895E7
:1024A0000E94792263D271D4BCD3F6DFE0D680E0FB
:1024B00035D70E944A1D70D4DECF0895AAE0B0E05F
:1024C000E4E6F2E10C94AE29CDD380EAA82E82E0B6
:1024D000B82E750110E0F70101917F01812FA4D280
:1024E0001F5F183009F43DC00817A9F38091B402AA
:1024F00081FDA0D2CADFC82E10E0812F95D2082F0F
:10250000F50181915F01081731F1D02ED826F12C09
:10251000EE24E3948D2D8E21B1F0CC20A1F0FE822B
:102520001F8391E0802F8E2109F490E098870E940C
:1025300082228160782F9A8789874E815F816885A2
:102540008A850E94450AF394EE0CF6E0FF12E2CF72
:10255000F501319700831F5F183079F662DF11E0D3
:1025600021C00813C3CF0E9482228C0180919E0259
:1025700090919F0208171907A1F08FEF89838A8332
:102580001B820E9482228160782F9D838C834981E7
:102590005A816B818D810E94450A10939F0200939E
:1025A0009E0210E0D8D30E94CD1D082F81114CDF70
:1025B0000E94481C111101C001110E94221B0E949F
:1025C000C0092A96EAE00C94CA29CF93DF93E9D098
:1025D000EC01811520E59207D0F5811530E49307D1
:1025E00008F091C0803E910518F58D3C910508F0EA
:1025F00088C0883A910570F4853A910508F079C051
:102600008130910501F10097F1F00497E0F4D0E0FA
:10261000C0E019C0813C9105D0F7C85AD0E0CC0F7A
:10262000DD1FC355DE4F0990D881C02DD4640BC087
:102630008115904208F099C0C11581E0D80718F4BF
:10264000C83ED10520F7CE01DF91CF9108958036A5
:1026500022E5920710F5803432E5930708F05DC05B
:102660008032924508F052C0C11582E5D80708F4BF
:102670006FC02C2F2695269580E2289F900111246B
:102680008C2F8370C1E0D0E002C0CC0FDD1F8A9593
:10269000E2F7C22BD32BDD68D6CF803E22E592072E
:1026A000F8F4803C32E5930708F04BC0803842E5EF
:1026B000940708F0ACCF282F26952695277080E246
:1026C000289F900111248C2F8370C1E0D0E002C0BC
:1026D000CC0FDD1F8A95E2F7C22BD32BDA68B3CF7C
:1026E00096558F3F910511F008F091CFDD27D06608
:1026F000AACFC55AD0E0C152DE4FC881D0E0D06425
:10270000A2CFD065A0CFDF70D06A9DCFCF71D0E0CF
:10271000DC2FCC27C16FD06A96CF282F269526951F
:10272000277040E2249F900111248370C1E0D0E023
:1027300002C0CC0FDD1F8A95E2F7C22BD32BDC68D9
:1027400082CFD82FCC27CC27DF71C06FD06A7BCF48
:102750008C2F8F71C8D035E0D695C7953A95E1F7A3
:10276000CF709C2FEC01D0696ECF8D2F8F71BBD0B5
:1027700090E0982F882788279F719C012C2BE901D6
:10278000D06261CF462F783030F4663020F4672F66
:102790000C94A708089590E080E00895F3DF15CF2A
:1027A000089582389105B9F1B0F48133910509F4A7
:1027B0007DC048F48932910509F46DC08A329105D3
:1027C00009F47BC008958533910509F45FC089330E
:1027D000910509F10895833E9105D9F138F4803EC1
:1027E000910529F1823E910579F10895863E910582
:1027F000D9F1873E910509F43EC0843E910541F52B
:102800002091680321FF24C08091670384FD19C0D3
:1028100087EE90E0089520916703237009F05AC075
:102820002091680323FF14C089E290E0089520916D
:10283000670320FD38C03091680330FF09C024FFD2
:1028400043C090E080E008952091670322FDF7CF18
:1028500008952091670322FD3AC03091680330FD4E
:1028600039C024FFF5CFEDCF2091670323FFF0CFD0
:1028700024FDE7CFCDCF2091670323FD2EC03091FB
:10288000680331FFEECF84EE90E008952091670356
:1028900025FFDECFC9CF2091670325FD21C0209100
:1028A000680323FFD5CF89E390E0D2CF209167035F
:1028B00026FFCECF8AE290E008952091670326FF9D
:1028C000C7CF81E390E0089583EE90E0089582EE13
:1028D00090E0089580EE90E0089586EE90E00895EF
:1028E00085E390E008959091670392FF06C0282F3A
:1028F00028712830F9F4877F846093FF06C0282F61
:1029000028712831F1F4877E84612091680320FFCB
:1029100006C0382F38713830D9F4877F816021FFA5
:1029200006C0282F28712831D1F4877E816194FD5B
:10293000877E0895282F24712430F9F68B7F8860D4
:10294000DCCF282F2471243101F78B7E8861DDCF05
:10295000382F3171313019F78E7F8860E0CF282F02
:102960002171213121F78E7E8861E1CF10926303BE
:102970001092640310926503109266030895CF923B
:10298000DF92EF92FF926B017C01E5D181110EC0C5
:102990000E948E22C61AD70AE80AF90AC092630377
:1029A000D0926403E0926503F0926603FF90EF908B
:1029B000DF90CF9008950F931F93CDD1882329F0F6
:1029C0000E948E221F910F9108950E948E220091E5
:1029D0006303109164032091650330916603600FD7
:1029E000711F821F931FEECF80E00895089586DC4B
:1029F000811101C014DD8DDC8093B4029ADC9093C8
:102A0000680380936703F2DF89DC90E043D880910C
:102A10005002909151020C94CD0708950895FECF75
:102A200008950C9466070895E82FF0E0EE58FC4FE7
:102A300080810895089580EA8A95F1F7089500C08D
:102A40000895F9CF08950895FECF0895EF92FF926B
:102A50001F93CF93DF9300D000D0CDB7DEB77BD1EB
:102A6000182F60917A03882309F446C019821A82CC
:102A70001B821C82862F90E09E012F5F3F4F7901C1
:102A8000B9018E589C4F94D18823E9F08091690355
:102A900090E044E050E0B7018E589C4F0E94E62938
:102AA00021E02093B502892BC9F410E00E9430097F
:102AB000812F0F900F900F900F90DF91CF911F916A
:102AC000FF90EF9008958091B502882371F384E020
:102AD000F70111928A95E9F71092B502E091690326
:102AE000F0E0EE58FC4F89819A81AB81BC818083F4
:102AF0009183A283B383DACF70E06E587C4F8091CC
:102B0000690390E08E589C4FD8D19EDFD1CFF894C6
:102B1000E82FE295EF70F0E031A1282F2F7081E0CF
:102B200090E001C0880F2A95EAF7982F909593239B
:102B300091A392A1892B82A378940895CF93DF93D8
:102B400086E6E5DF87E9E3DF86ECE1DF84E3DFDFCC
:102B5000C2EED1E089918F3F09F0D9DF81E0C83E14
:102B6000D807C1F7DF91CF910895B0E0A0E0EBEB7B
:102B7000F5E10C94B029EC01D62E062F10E0C80127
:102B800088519E4F7C01FC0180818F3F09F442C037
:102B9000F894E82FE295EF70F0E091A18F7021E0BA
:102BA00030E001C0220F8A95EAF7892F822B81A39A
:102BB00082A12095282322A3789441DFE2EEF1E060
:102BC00048EE51E031E0C12C21912F3F41F1A22F7D
:102BD000A295AF70B0E090968C9190E02F7002C0FB
:102BE000959587952A95E2F780FD19C0832FC82A0D
:102BF000330F4E175F0741F7F70180818F3F09F0D0
:102C000086DF61E0C11001C060E08D2D1ADFC00FCA
:102C1000D11FC882CDB7DEB7E8E00C94CC2980E0A4
:102C2000E6CF809102018091020194E0811190E051
:102C300090937A0384E0891B809369037FDF88E0A7
:102C4000E2E7F3E0DF01982F1D929A95E9F7EAE6B3
:102C5000F3E0DF011D928A95E9F784E03ED00C9401
:102C60002D090895A8E0B0E0E8E3F6E10C94B3295B
:102C70008E010F5F1F4F88E0F80111928A95E9F7E6
:102C8000F12C6F2DC80171DFF394F4E0FF12F9CF3E
:102C900048E050E0B8018AE693E00E94E62921E08E
:102CA000009709F420E0892B41F088E0F801AAE6BA
:102CB000B3E001900D928A95E1F760917A0370E09C
:102CC0006E587C4F44E08AE693E008D0182FBEDEB1
:102CD000812B2896E5E00C94CF290895CF92DF92BE
:102CE000EF92FF920F931F93CF936C017B01042F00
:102CF000222349F081E08093B8020E9482229093BF
:102D0000B7028093B602C091B802C1110AC0C0E0F8
:102D10008C2FCF911F910F91FF90EF90DF90CF906C
:102D200008958091B6029091B7020E949A22059769
:102D300070F310E0A801B601C7010E94E629892BB3
:102D400041F0A801B601C7010E94F3291092B80210
:102D5000DFCFC0E0FBCF8091BB02811107C00E9492
:102D60006029882351F081E08093BB0281E090913B
:102D7000BB02913009F080E0089582E08093BB02AD
:102D80000E945C29F3CFE7CF0895FDDF8093020115
:102D9000E2DF811142C00895DEDF811101C040C031
:102DA000089581E09091BC029A3008F080E0089587
:102DB0000F931F93CF93DF93EC018B018091BC02A3
:102DC0008A30B0F4B801CE0176D0C82F811122C06C
:102DD0008091BC028F3FB9F40E9482229093BA0284
:102DE0008093B9028C2FDF91CF911F910F9108959D
:102DF0008091B9029091BA020E949A22843F914038
:102E000008F7C0E0EFCF8F5F8093BC028A3020F7D5
:102E1000C1E0E8CF1092BC02E5CF0C94DD1F08950D
:102E20000C94E01F0895B0E0A0E0E9E1F7E10C9414
:102E3000B1297901C82F880FDD0B41155105A9F083
:102E4000FE0193E0EE0FFF1F9A95E1F7ED5FFE4F55
:102E50008181928183549D4F208130E04217530736
:102E600008F49A01A9010E94F329CE010E94C12011
:102E7000D82E8823D1F001151105B9F083E0CC0FCD
:102E8000DD1F8A95E1F7FE01ED5FFE4F438150E0C3
:102E90000417150708F4A801CD5FDE4F6C817D8112
:102EA00063547D4FC7010E94F3298D2DCDB7DEB746
:102EB000E7E00C94CD2957C108957AC10895A4E0A4
:102EC000B0E0E5E6F7E10C94B4296091D902709185
:102ED000DA028091DB029091DC020E94A92211E0CB
:102EE000643671058105910508F165DD6E5F7F4FE0
:102EF0008F4F9F4F69837A838B839C8310E000E020
:102F000030E020E044E050E0BE016F5F7F4F84E09E
:102F10008ADF182F882351F00E948E226093D902F5
:102F20007093DA028093DB029093DC02812F249667
:102F3000E4E00C94D029A1E0B0E0E1EAF7E10C94E0
:102F4000AB29762E4A015901680101E010E09E018B
:102F50002F5F3F4F50E040E070E060E064DF182FEB
:102F6000882381F1F40160817181828193810E94C3
:102F7000A9226436710581059105F0F0870195015C
:102F800050E040E070E060E0872D4DDFB82EB701E3
:102F9000C6016ED111E09981981310E01B2139F020
:102FA0000E948E22F4016083718382839383812F38
:102FB0002196EDE00C94C729B701C60159D199813A
:102FC0008913DCCFA701B601C5010E94F329EFCF19
:102FD000A1E0B0E0EEEEF7E10C94B2290091EC0133
:102FE0001091ED010A5F1F4FEE24E394F12C9E0136
:102FF0002F5F3F4F45ED52E063E082E09CDF182FEA
:10300000882319F0CE0101965FD6812F2196E6E044
:103010000C94CE29A4E0B0E0E0E1F8E10C94B029F2
:103020006B010091EC011091ED010F5F1F4F84E0E7
:10303000E82EF12C9E012F5F3F4F41ED52E061E001
:1030400080E079DF882361F049815A816B817C813E
:103050004093CD025093CE026093CF027093D00282
:103060004091CD025091CE026091CF027091D0027A
:10307000F60140835183628373832496E8E00C94C5
:10308000CC29B0E0A0E0E7E4F8E10C94AE297C01A3
:103090005B016A0186DE01E010E0882311F00AE09E
:1030A00010E0C1E0D0E0B501C701F601099581113A
:1030B00004C021960C171D072CF4CDB7DEB7EAE04B
:1030C0000C94CA29CC9F9001CD9F300D300D112456
:1030D00090E080E045E34A95F1F700000196821701
:1030E0009307C1F7E0CFA1E0B0E0E9E7F8E10C9485
:1030F000B429C9D3082F8983E091EC01F091ED0147
:1031000013856091DD027091DE028091DF02909163
:10311000E0020E94A922643671058105910530F410
:10312000812F90E011E008171906C1F010E000E0CF
:1031300030E020E041E050E0BE016F5F7F4F85E06E
:1031400072DE182F882351F00E948E226093DD02D8
:103150007093DE028093DF029093E002812F21962C
:10316000E4E00C94D0290F931F93CF93DF93EC01ED
:103170008B014AE058E185DF811106C080E0DF91D4
:10318000CF911F910F91089548EE57E1B801CE01FC
:1031900078DF882399F34FE557E1B801CE0171DF5D
:1031A000882361F343E758E1B801CE016ADFE7CF36
:1031B000A1E0B0E0EEEDF8E10C94B0290091EC0153
:1031C0001091ED01C801019624E0FB01DC010190A2
:1031D0000D922A95E1F764E070E04AD0F80180830F
:1031E000CE01019666D58981F801868361E070E0A1
:1031F000CE0101963DD0F801858367817085818578
:103200009285C090C902D090CA02E090CB02F090A3
:10321000CC026C157D058E059F0549F06093C902AF
:103220007093CA028093CB029093CC02A8DBF80182
:103230008385882329F006D22196E8E00C94CC29D6
:1032400008D3FACF0E945C242BD90C9466240895ED
:103250000E946A2433D90C94802408950E941B2272
:103260000E9443240BD9EEDFF3DF13D9FDCF08957D
:10327000FC01680F791F8FEF91E36E177F0709F448
:1032800008952191822728E030E087FF06C0880F4B
:10329000892721503109C9F7F0CF880FFACFB0E064
:1032A000A0E0E5E5F9E10C94B0296C017B0164E64E
:1032B00070E088E751D5EC0197FD11C010E000E007
:1032C000F601E00FF11F849164E670E0ABD5EC01EC
:1032D000892B29F40F5F1F4F0E151F0589F711D693
:1032E000CE01CDB7DEB7E8E00C94CC290895FECF2F
:1032F0000895EBE7F3E080E094E0DF019C011D928C
:1033000021503040E1F7F0938207E09381078FEF7F
:103310009FEF90932D0380932C0308950E946307E1
:10332000E6DF8093280380FD0DC080E880932703AB
:103330000DD56DE070E08AE797E0B1DF892B21F0D1
:1033400080E0089580E4F2CF8091280363E070E08C
:1033500081FD23C087E797E0A2DF892B89F76DE025
:1033600070E087E697E09BDF892B51F70E948E2261
:10337000605A75418F4F9F4F60937D0770937E0712
:1033800080937F0790938007B4DF81E080932B03C5
:1033900080932A0310922903089584E797E0DCCFF5
:1033A0002091270336E0839FC0011124629F800D86
:1033B000911D1124811524E0920714F090E080E023
:1033C00085589C4F909382078093810708952091A0
:1033D0008107309182072557334040912703642F9E
:1033E00070E0C9010E947929481B463010F4240F6F
:1033F000311D211584E0380710F030E020E0255819
:103400003C4F309382072093810708951F93CF93F9
:10341000DF93162F8A3031F481E06FD0DF91CF91A6
:103420001F9108958D3011F480E0F7CFC09181078E
:10343000D091820796E0FE01A1EEB2E001900D92DC
:103440009A95E1F7803EB0F086E0FE0111928A95F0
:10345000E9F711111BC0C0918107D091820746E0A6
:1034600050E0BE0181EE92E00E94E629892BE1F452
:10347000AEDFD4CFF6E08F9FB00111246957784FAB
:1034800046E050E0CE010E94DD29E3CFE0918107C4
:10349000F09182079F012A5F3F4F2E173F07D9F215
:1034A000808180958193F9CFCB57D340CE0126E020
:1034B000969587952A95E1F721E030E0A90102C0B1
:1034C000440F551F8A95E2F7CA0140912C03509191
:1034D0002D03842B952B259646E0D695C7954A95C6
:1034E000E1F702C0220F331FCA95E2F7822B932B1C
:1034F00090932D0380932C03BBCFCF93382FE09173
:103500008107F0918207EB57F34020912703622F48
:1035100070E0CF010E947929281B822F332361F0AC
:1035200066E00E946D29C82FC15010F4CF91089514
:1035300060E080E26BDFF8CF9F01280F311D21157D
:10354000344018F080E0F0E0E0E08E0F9F2F911DF6
:1035500085589C4F9093820780938107E7CFFF9215
:103560000F931F93CF93DF93EC01F62EFC01019094
:103570000020E9F78F0101501109C017D10728F089
:10358000CDB7DEB7E5E00C94CF296F2D89913EDFF2
:10359000F4CFE5DF81E0B1CF08951F93CF93DF93A0
:1035A000EC01162FFE018491811104C0DF91CF91AF
:1035B0001F910895612F2ADF2196F4CFEEDF81E07D
:1035C0009CCF0895CF93DF9320918107309182079C
:1035D0002B573340A901460F571F4130544020F06C
:1035E00060E074E0621B730B40912C0350912D033B
:1035F000FC01C901620F731FC1E0D0E08617970775
:1036000038F050932D0340932C03DF91CF91089510
:103610002491DC01A558BC4F3C91321781F02C93CA
:103620009C01A6E036952795AA95E1F7DE0102C038
:10363000AA0FBB1F2A95E2F79D014A2B532B019637
:103640003196DCCF80912B03811103C080912A0336
:10365000089564D7605A75418F4F9F4F60937D07DF
:1036600070937E0780937F079093800780912A0351
:103670008111ECCF62E070E085E697E010DE892BE7
:1036800029F781E080932A03E1CFB0E0A0E0EBE4EA
:10369000FBE10C94AA2980912C0390912D03892B96
:1036A00009F4BAC080912B03882309F4B5C0809136
:1036B00029038111B1C0C6DF20912C0330912D0365
:1036C0002115310509F4A8C080E041E050E0082F41
:1036D00010E0EA01082E02C0CC0FDD1F0A94E2F7C9
:1036E000BE0162237323672B11F48F5FF0CF90919B
:1036F000280390FF96C0880F880F880F80933501AC
:1037000010923801895F8093360187E080933901F8
:1037100024E630E047E050E063E371E088E7AED3B1
:10372000892B09F079C0A80126E0440F551F2A957E
:10373000E1F78091280380FF85C0E7EEF2E080E4A6
:10374000DF011D928A95E9F706EF11E08EEEE82E73
:1037500081E0F82E97E0992E88248394D801ED918A
:103760008D01D7016D917D01640F752F711D655815
:103770007C4FF0E0E951FD4F30E020E0792C721AE7
:10378000A82C022E01C0AA0C0A94EAF76B0190E063
:10379000D6018D916D018A21A72DA91BA770BA2E84
:1037A0000A2E000CBB0B682E01C0660CBA94EAF717
:1037B000B62CB195A195B109A770BB2701C086951C
:1037C000AA95EAF7A62DA82B80818A2B80839F5F7C
:1037D0009830F1F62F5F3F4F31962830310571F662
:1037E00081E00E3F180709F0B9CF04E610E020E4AD
:1037F00030E047EE52E060E488E75FD3892B61F464
:10380000C095D09580912C0390912D03C823D92386
:10381000D0932D03C0932C03CDB7DEB7EEE00C940C
:10382000C6298295880F880F80748093350198018E
:103830003695279520933801815C8093360110924C
:10384000390166CF45585C4F04E610E020E430E0D3
:10385000D2CF80912A0390912B03911103C091E064
:1038600089270895882361F062E070E083E697E09D
:1038700016DD892B19F080912A03089510922A03EE
:1038800080912A03ECCF80912A03089581E0089566
:103890000F931F9380912B03882349F180917B071D
:1038A00090917C0747D6C29750F02CD690937C0716
:1038B00080937B0760E080E073DD0E940C08E5DE0A
:1038C00080912A03882399F029D600917D071091D1
:1038D0007E0720917F0730918007601B710B820B60
:1038E000930B6F3F7F4F8F4F9F4708F4B2DF1F91BD
:1038F0000F910895B0E0A0E0E0E8FCE10C94B1295C
:10390000E82FF0E0E953F34FD490282F2695269521
:10391000269530E0F901E959F24F0491877010E0E3
:10392000082E02C0159507950A94E2F70170112739
:10393000F901E95AF24FE490F12C082E02C0F594F7
:10394000E7940A94E2F791E0E922FF24F901E95BA8
:10395000F24FC491D0E002C0D595C7958A95E2F7A1
:10396000C170DD270115110519F081EE0E94970A3B
:10397000E114F10419F086EE0E94970A8D2D0E9441
:10398000130BE114F10419F086EE0E94D60A01151A
:10399000110519F081EE0E94D60ACD2B19F08CE2A8
:1039A0000E94130BCDB7DEB7E7E00C94CD29EF9260
:1039B000FF920F931F93CF93DF938C01F62E8AE033
:1039C000E82EF8018491882309F453C0813009F06E
:1039D0004DC0E8012196FE018491813091F4219639
:1039E000FE0184910E94130B8E010F5F1F4F8F2DDC
:1039F000815038F3EFE9FFE03197F1F700C00000A4
:103A0000F7CF823039F4E8012296FE0184910E94BA
:103A1000970AEACF833039F4E8012296FE018491B7
:103A20000E94D60AE1CF8430F9F6E8012296FE0121
:103A3000249190E080E0FE0131962053330B2A3030
:103A4000310548F0019780F2EFE9FFE03197F1F797
:103A500000C00000F7CFE89EA001E99E500D1124A0
:103A6000C901840F951F2491EF01E5CF43DFE801E1
:103A7000BBCFCDB7DEB7E6E00C94CE298FE891E05E
:103A80000197F1F700C0000008950C9474080895A0
:103A900062C908950F931F93CF93DF939091020112
:103AA00081E0982790933203282F291B209331031C
:103AB000909102018093330390910201809330032F
:103AC00080910201811106C084EF80933B0185EF54
:103AD00080933A0120913B01E22FE295EF70F0E0F4
:103AE00061A12F7081E090E0AC0101C0440F2A95E4
:103AF000EAF7342F3095362331A322A1242B22A3B9
:103B000020913A01E22FE295EF70F0E031A12F70A1
:103B100001C0880F2A95EAF7982F9095932391A3D7
:103B200092A1892B82A3AADF6091330346E353E07D
:103B3000CBE3D1E00AE311E0FA0126C02991822FFC
:103B400082958F7090E0DC0190968C9190E02F70C0
:103B500002C0959587952A95E2F78170D8019D91CD
:103B60008D01292F22952F7030E0D90190962C914C
:103B700030E09F7002C0359527959A95E2F790E066
:103B800020FD92E0892B81938E2F841B8617B0F243
:103B9000DF91CF911F910F910895B0E0A0E0E3ED88
:103BA000FDE10C94B02910E000E082E0C82ED12C99
:103BB00080913303181730F0802FCDB7DEB7E8E0DF
:103BC0000C94CC29C12FD0E0FE01E55CFE4F808132
:103BD000E82FE295EF70F0E0E0A1F0E08F7002C016
:103BE000F595E7958A95E2F7E170DE01A65CBE4F98
:103BF0004C91A42FA295AF70B0E090968C9190E07C
:103C00004F7002C0959587954A95E2F780FD49C0AF
:103C100080E08E2BDE01AA5CBC4FEC919E2F93704E
:103C2000981709F43CC0EE0FEE0FE82BEC93E090F0
:103C30003203E10EEF70F0E0E250FE4FCC5CDC4F5F
:103C400080819881890F8883F12C823074F0EE2D69
:103C5000F0E0E25DFC4F80818F5F808319DFF82EFA
:103C6000882309F160E08E2D10DF88818F3F74F486
:103C7000EE2DF0E0E25DFC4F80818150808308DF13
:103C8000F82E882399F061E08E2DFFDE8881082EC2
:103C9000000C990BB6010E948D2988830F291F5FA4
:103CA00087CF82E0B6CFFF24F394DFCFFF24F394D5
:103CB000EDCF4091330350E06091320370E0625DDC
:103CC0007C4F0C94F3290895B0E0A0E0EAE6FEE111
:103CD0000C94B0296C01D0E080E090913003D917AA
:103CE00040F081110E942412CDB7DEB7E8E00C94B9
:103CF000CC29F0903103FD0E0F2D10E0025D1C4F1A
:103D0000F601ED0FF11DC081F8019081C91BEC2E69
:103D10001E1444F09C2FC7FD90E0C91BC1110CC0BC
:103D2000DF5FDBCFEA94F80180818F5F808360E002
:103D30008F2DABDE81E0ECCFCF5FF8018081815029
:103D4000808361E08F2DA1DE81E0E8CF1092B90081
:103D50008CE08093B8000895B0E0A0E0E2EBFEE1D3
:103D60000C94AD29B82EEB01CDD36C01EE24E39475
:103D7000F12CC431D10560F025E0E22EF12CCF3FCB
:103D8000DC0731F0CE0164E170E00E9479297B010B
:103D900084EAA82E94E8992E1092BC00A092BC0050
:103DA000B1D38C018091BC0087FF0DC08091B90018
:103DB000887F8830E9F08091B900887F8031C1F038
:103DC0000FEF1FEF07C0C801B5D3E816F90650F78B
:103DD0000EEF1FEFCF3FDC07F9F2C601ABD3C817D8
:103DE000D907D0F6C801CDB7DEB7EBE00C94C929EE
:103DF000B092BB009092BC0085D38C018091BC0036
:103E000087FF0AC08091B900887F883111F0803423
:103E1000B9F610E000E0E6CFC8018CD3E816F90649
:103E200068F7D6CF0F931F93CF93DF93EB01809367
:103E3000BB0084E88093BC0065D38C018091BC00FA
:103E400087FF11C02091B900287F81E090E02832DF
:103E500011F490E080E0919581959109DF91CF91E7
:103E60001F910F910895CF3FDC0741F3C80162D342
:103E7000C817D90718F78EEF9FEFF0CFB0E0A0E09A
:103E8000E4E4FFE10C94B0296B018A017901B901E6
:103E900063DFE6010C0D1D1DC017D10711F097FF60
:103EA00008C024E92093BC00CDB7DEB7E8E00C944D
:103EB000CC29B7018991B6DFEFCFB0E0A0E0E3E60F
:103EC000FFE10C94B029C62F6A017901B80144DFE3
:103ED00097FD0BC0B8018C2FA5DFE601EC0CFD1C93
:103EE000CE15DF0511F097FF08C024E92093BC0030
:103EF000CDB7DEB7E8E00C94CC29B801899192DF08
:103F0000EFCF84E98093BC0008958EE14A9B02C004
:103F10008150E1F74A9BFECF08955A9880E28A9536
:103F2000F1F75A9A0895FC013BE03A95F1F798E0D1
:103F300020E080E031E040E14A95F1F7880F4A9BAC
:103F400002C08160232742E04A95F1F7000040E17A
:103F50004A95F1F7915079F790E19A95F1F799B177
:103F600032E03A95F1F7000040E14A95F1F792FB13
:103F7000992790F992272081920F90830895A1E0CC
:103F8000B0E0E5ECFFE10C94B22919828C017C01D0
:103F9000E60EF11C0E151F0541F481E09981911187
:103FA00080E02196E6E00C94CE29AFDFCE010196A9
:103FB000BADFF80181938F01EDCF529A5A9A089592
:103FC00052985A9AEA9AE9E6F0E080818F7C8083E1
:103FD00008956150770B91E001C0990F6A95EAF757
:103FE00020E031E0911108C0222391F05A9A80E23A
:103FF0008A95F1F75A980895492F482339F05A9A2B
:10400000232740E24A95F1F79695ECCF5A98F9CFDD
:104010005A98EDCFFF920F931F93CF93DF93EC014C
:104020008C01060F111DC017D10729F4CDB7DEB7DB
:10403000E5E00C94CF29F99070DF68E08F2DC9DF9F
:10404000F2CF1F920F920FB60F9211240F931F936E
:104050002F933F934F935F936F937F938F939F9390
:10406000AF93BF93EF93FF93CF93DF930F92CDB7AF
:10407000DEB719824ADFCE01019655DF082F06957B
:1040800006950695282F22952570902F9570290F5B
:10409000922F937026952695920F98279770898175
:1040A000982B09F058C0073008F055C080E18A9578
:1040B000F1F75A9A529A82E08A95F1F700C05A981D
:1040C00088E0089F80011124D801AD5FBE4F16968D
:1040D000ED91FC9117973097A9F06091EC017091E8
:1040E000ED0114962D913C911597260F371F1196CF
:1040F0008D919C911297680F791F13964C9113978D
:104100008C910995F801ED5FFE4F6381662349F0BC
:104110002091EC013091ED0184819581820F931FF4
:1041200079DFFBDE80E18A95F1F75A9852985A9A26
:1041300080E18A95F1F7F801ED5FFE4F608166231B
:1041400049F02091EC013091ED0181819281820F43
:10415000931F15DFDADE0F90DF91CF91FF91EF9182
:10416000BF91AF919F918F917F916F915F914F918F
:104170003F912F911F910F910F900FBE0F901F90A5
:1041800018950F931F93CF93DF93EC0107970CF0D3
:1041900049C0F894529A5A9885E08A95F1F7000040
:1041A0009C2F969595708C2F8570980F892F837012
:1041B0009695969523E0CC0FDD1F2A95E1F7980F91
:1041C0008E01092BAADE00C068E0802F02DF80E1AB
:1041D0008A95F1F752985A9A4A9B1DC087E090E061
:1041E0004A991BC0FE01ED5FFE4F63816623F1F02B
:1041F0002091EC013091ED0184819581820F931F14
:10420000BEDE811113C0529A5A9A7894DF91CF91F1
:104210001F910F91089500C0DFCF019729F4529AA2
:104220005A9A789480E0F2CF00C0DACF6EDE80E256
:104230008A95F1F75A98529A80E18A95F1F7CD5F05
:10424000DE4F6881662349F02091EC013091ED0149
:1042500089819A81820F931FDDDE5FDE789481E091
:10426000D5CF90930F0280930E02089590933E0352
:1042700080933D0308950E94AB16811103C0809185
:1042800038030895E0913D03F0913E03309729F003
:104290000190F081E02D0995089580E00895EBCF1D
:1042A0000895E0913D03F0913E03309721F00280A4
:1042B000F381E02D09950895A3E0B0E0E2E6F1E294
:1042C0000C94B62920913B0330913C032817390701
:1042D000A1F090933C0380933B03E0913D03F09168
:1042E0003E03309751F023E029839B838A83068025
:1042F000F781E02DCE01019609952396E2E00C941A
:10430000D229A3E0B0E0E7E8F1E20C94B6292091CD
:10431000390330913A0328173907A1F090933A03F3
:1043200080933903E0913D03F0913E03309751F0C3
:1043300024E029839B838A830680F781E02DCE01C8
:10434000019609952396E2E00C94D229662349F060
:10435000FC01329608962191261729F0E817F907F3
:10436000D1F780E0089581E008959C01FC01329628
:104370009FEF80E04191461751F09F3F19F44111A2
:1043800001C0982F8F5F8630A9F79F3F09F40895E9
:10439000290F311D97FD3A95F90162830895FC01BB
:1043A000329608962191261303C0DF0111971C92C3
:1043B000E817F907B9F70895D8CF0895F0CF089511
:1043C000029626E0FC0111922A95E9F708950895D6
:1043D000FECF0895811105C081E080933F03F8CF9F
:1043E000089582E0FACF83E080933F03F1CF0895F0
:1043F000F1CF089581E080933F03EACF0895FACF8B
:10440000089508950895FECF089508950895F9CF69
:104410000895CF93FADF0E943216F8DFC0E08C2FA8
:104420000E941415811105C0CF5FC830C1F7CF912C
:10443000089581E0FCCF85B7806885BF85B7806827
:1044400085BF08951F921FB61F9211248F939F93CB
:10445000AF93BF9380914003811113C08091830774
:1044600090918407A0918507B09186074196A11D80
:10447000B11D8093830790938407A0938507B09321
:104480008607BF91AF919F918F911F901FBE1F9084
:10449000189580918B07843031F10E947009109239
:1044A000400388E190E020E40FB6F894A89580934B
:1044B00060000FBE2093600083B7817F846083BF5C
:1044C00083B7816083BF7894889583B78E7F83BFDD
:1044D0000FB6F894A8958091600088618093600081
:1044E000109260000FBE08950E94FD0C0C94760996
:1044F000089582E084BD93E095BD9AEF97BD8093C7
:104500006E0008952FB7F8948091830790918407E7
:10451000A0918507B09186072FBF08952FB7F89413
:104520006091830770918407809185079091860739
:104530002FBF08959C014FB7F89480918307909105
:104540008407A0918507B09186074FBF821B930B0C
:104550000895CF92DF92EF92FF922FB7F894C09018
:104560008307D0908407E0908507F09086072FBFDF
:10457000A7019601261B370B480B590BCA01B9013D
:10458000FF90EF90DF90CF90089578941F921FB620
:104590001F9211248F939F93AF93BF9380918307B2
:1045A00090918407A0918507B09186070196A11D7F
:1045B000B11D8093830790938407A0938507B093E0
:1045C0008607BF91AF919F918F911F901FBE1F9043
:1045D000189581E08093E00080E28093D8001092EB
:1045E000C9008FE19EE40197F1F700C0000087E069
:1045F00090EBDC018093940790939507A093960726
:10460000B093970788E19CE00FB6F894A895809343
:1046100060000FBE90936000FFCF88E19CE00FB672
:10462000F894A895809360000FBE90936000FFCF30
:1046300080914903089508959B01BA0190918B07D9
:104640009430E1F48F708093E9009FEF8091E8004F
:10465000915085FD06C085ED8A95F1F70000911116
:10466000F5CF8091E80085FF09C050E040E0C90126
:10467000B8D18091E8008E778093E800089543E0F8
:1046800050E0BC0182E0D8CF0895CF93DF93EC01D6
:1046900048E050E0BC0181E0CFDF88E0FE01A1E40A
:1046A000B3E001900D928A95E1F7DF91CF910895E3
:1046B00080918A07811107C022D379D38091E200CB
:1046C00084608093E200089510928A07089592CE44
:1046D00008956091870781E0611101C080E083CE79
:1046E000089590918B0781E0943009F080E060910B
:1046F00087077ECE089542E061EC81E07CD242E201
:1047000061EC82E078D290918B0781E0943009F0DF
:1047100080E0609187075ECE089580918D07833099
:1047200009F45FC030F48130C9F1823009F49AC0D5
:1047300008958A3009F487C08B3009F46DC0893040
:1047400009F04EC080918C07813209F049C08091F8
:10475000900790919107029708F042C08091E8007D
:10476000877F8093E8008091E80082FF35C09091B8
:10477000F3008091F200029731F48091F1008130D2
:1047800011F0863021F48091F100809349038091EB
:10479000E8008B778093E80062D222C080918C077A
:1047A000813AF1F48091E800877F8093E80080915E
:1047B000900790919107892B59F468E081E493E088
:1047C00070E05CD18091E8008B778093E8000895D9
:1047D00060E090E080E0F4CF80918B078111C3CF3F
:1047E000089580918C07813AD9F780919007909134
:1047F0009107892BA9F78091E800877F8093E800D3
:104800008091E80080FFFCCF809144018093F1000B
:104810008091E8008E77BECF80918C07813201F7BE
:104820008091900790919107892BD1F68091E800B3
:10483000877F8093E80013D280918E078093440194
:104840000C94FD0C089580918C07813249F680917B
:10485000E800877F8093E80002D280918F078093E1
:104860004A03089580918C07813A09F0B9CF80916D
:10487000E800877F8093E8008091E80080FFFCCF0C
:1048800080914A03C3CF84B7877F84BF0FB6F89463
:10489000A89580916000886180936000109260000C
:1048A0000FBE80E890E00FB6F8948093610090937B
:1048B00061000FBEA4CD089522D279D2E2EEF0E0DD
:1048C0008081846080837894DDC408958CE391E0D6
:1048D000CDCC089580918B07853029F480918B078A
:1048E000853011F001CE0895D4DD809189078823A9
:1048F000A9F38FDD882391F35ED00E94FD0CEECFEB
:10490000089501C00895292F33272330310519F167
:1049100068F42130310509F444C02230310509F42E
:1049200045C090E080E030E020E025C02132310534
:1049300049F122323105A9F780E490E024E13EE01C
:1049400061157105C1F082E390E022EE3DE0613037
:10495000710589F0E6CF99278130910581F00097A4
:1049600029F00297F1F6E7E7FDE002C0E1E9FDE09A
:10497000849190E09F01FA01318320830895E3E858
:10498000FDE0F6CF89E090E027EA3DE06115710592
:1049900091F389E090E020EC3DE06130710559F33E
:1049A000C0CF82E190E020ED3DE0E5CF8BE390E0E9
:1049B00025E93DE0E0CF80E189BD82E189BD09B410
:1049C00000FEFDCF8091D8008F7D8093D80080912C
:1049D000E00082608093E0008091E00081FDFCCFE8
:1049E0000895AF92BF92CF92DF92FF920F931F93E1
:1049F000CF93DF936C01EB018A0150D1F82E811126
:104A000023C00115110539F0F80180819181C81B7F
:104A1000D90BC80ED91EB12CA12C2097A9F08091DA
:104A2000E80085FD21C08091E8008E778093E80042
:104A300001151105A1F0F80180819181A80EB91E20
:104A4000B182A08285E0F82E8F2DDF91CF911F914A
:104A50000F91FF90DF90CF90BF90AF9008951ED13F
:104A60008823D9F2F82EF0CFF60181916F0180935F
:104A7000F1002197FFEFAF1ABF0ACFCFFC01809161
:104A800092079091930786179707A0F0611571051B
:104A900029F49091E8009E779093E80090E06115EA
:104AA000710551F4911108C08091E80082FF34C073
:104AB00080E00895BC01F2CF80918B078823C1F17B
:104AC0008530C1F18091E80083FD30C08091E8001D
:104AD00082FDEACF8091E80080FFE1CF8091F30072
:104AE0002091F200382F6115710519F02830310539
:104AF00058F091E02830310509F090E02091E8006D
:104B00002E772093E800CBCF81918093F100615004
:104B100071092F5F3F4FE7CF80918B07882341F0CA
:104B2000853041F08091E80083FFBECF81E0089599
:104B300082E0089583E00895FC01809192079091AE
:104B4000930786179707A0F06115710529F48091E6
:104B5000E8008E778093E80090E06115710551F4CC
:104B6000911108C08091E80082FF35C080E008956F
:104B7000BC01F2CF80918B078823C9F18530C9F140
:104B80008091E80083FD31C08091E80082FDEACF8A
:104B90008091E80080FFE1CF8091F3002091F20046
:104BA000382F6115710519F02830310558F091E062
:104BB0002830310509F090E08091E8008E778093ED
:104BC000E800CBCF84918093F10031966150710958
:104BD0002F5F3F4FE6CF80918B07882341F08530D0
:104BE00041F08091E80083FFBDCF81E0089582E02D
:104BF000089583E00895982F973028F08F70809360
:104C0000E90081E008959093E900242F762F50E089
:104C1000981731F07091EC002091ED005091F00068
:104C200021FD02C09F5FE8CF3091EB003E7F3093C3
:104C3000EB003091ED003D7F3093ED003091EB00C3
:104C400031603093EB007093EC002093ED005093B3
:104C5000F0002091EE0027FDE5CF80E008958091DF
:104C60008C0787FF13C08091E80082FF06C0809107
:104C7000E8008B778093E80004C080918B07811156
:104C8000F2CF089580918B078823D9F38091E800B3
:104C900080FFF8CF8091E8008E77ECCF2091E40080
:104CA0003091E50095E6A9012091EC00822F8170FA
:104CB00020FF06C08091E80080FF06C080E00895D4
:104CC0002091E80022FD1AC080918B07882389F08B
:104CD000853089F08091EB0085FD0FC02091E400C4
:104CE0003091E50042175307F9F29150E1F684E064
:104CF000089582E0089583E0089581E0089568D0E2
:104D00006FD0E0EEF0E0808181608083E8EDF0E03C
:104D100080818F77808319BCA7EDB0E08C918E7F66
:104D20008C9380818F7E808310928A0708950F93E1
:104D30001F93CF93DF934CD053D0C8EDD0E0888140
:104D40008F77888388818068888388818F7D888336
:104D500019BC10928B071092870710928907109246
:104D6000880700EE10E0F80180818B7F80838881C6
:104D70008160888342E060E080E03DDFE1EEF0E0CA
:104D800080818E7F8083E2EEF0E08081816080838D
:104D9000808188608083F80180818E7F8083888114
:104DA00080618883DF91CF911F910F910895E8ED85
:104DB000F0E080818F7E8083E7EDF0E0808181608C
:104DC000808384E082BF81E080938A07B0CF08951A
:104DD000E8EDF0E080818E7F80831092E2000895FC
:104DE0001092DA001092E10008951F920F920FB610
:104DF0000F9211242F933F934F935F936F937F9361
:104E00008F939F93AF93BF93EF93FF938091E100B4
:104E100082FF0AC08091E20082FF06C08091E1001B
:104E20008B7F8093E1002DD28091DA0080FF18C043
:104E30008091D80080FF14C08091DA008E7F80932B
:104E4000DA008091D90080FF91C080E189BD82E1C4
:104E500089BD09B400FEFDCF81E080938B0728DC7B
:104E60008091E10080FF18C08091E20080FF14C0B3
:104E70008091E2008E7F8093E2008091E200806169
:104E80008093E2008091D80080628093D80019BCA2
:104E900085E080938B071DDC8091E10084FF2AC0B0
:104EA0008091E20084FF26C080E189BD82E189BD56
:104EB00089B5982F917080FFFBCF8091D8008F7DAE
:104EC0008093D8008091E1008F7E8093E1008091F3
:104ED000E2008F7E8093E2008091E2008160809307
:104EE000E20080918707882309F445C084E080931D
:104EF0008B07F7DB8091E10083FF27C08091E20000
:104F000083FF23C08091E100877F8093E10082E0EE
:104F100080938B07109287078091E1008E7F8093AA
:104F2000E1008091E2008E7F8093E2008091E200B8
:104F300080618093E20042E060E080E05CDE80918E
:104F4000F00088608093F000C2DBFF91EF91BF9189
:104F5000AF919F918F917F916F915F914F913F9111
:104F60002F910F900FBE0F901F90189519BC1092A3
:104F70008B07AADB75CF8091E30087FD93E09093C8
:104F80008B07B7CF1F920F920FB60F9211242F935A
:104F90003F934F935F936F937F938F939F93AF93C1
:104FA000BF93CF93DF93EF93FF93D091E900DF702E
:104FB0008091EC00C82FC17080FDC0E81092E9001C
:104FC0008091F000877F8093F00078941ED010923B
:104FD000E9008091F00088608093F000CD2BCF70C5
:104FE000C093E900FF91EF91DF91CF91BF91AF9115
:104FF0009F918F917F916F915F914F913F912F91F1
:105000000F900FBE0F901F901895AAE2B0E0EAE053
:10501000F8E2ABC18CE897E02091F100FC0121930C
:10502000CF01F7E084399F07B9F777DB8091E8007B
:1050300083FF16C180918C0790918D079A3008F0FC
:105040000FC1E92FF0E0ED5AF54D7AC1803899F0A3
:10505000823809F005C1809190078F70873008F081
:10506000FFC08093E9008091EB0085FB882780F9E1
:105070001092E90006C080918807909189079111EC
:1050800082609091E800977F9093E8008093F10010
:105090001092F1008091E8008E77DFC0882309F438
:1050A000CDC0823009F0DCC080918E078111D0C064
:1050B000809190078F702FEF280F263008F0D0C016
:1050C0008093E9002091EB0020FFC2C0933031F4BF
:1050D0008091EB0080628093EB00BAC09091EB006E
:1050E00090619093EB0021E030E001C0220F8A959F
:1050F000EAF72093EA001092EA008091EB008860C2
:10510000EACF8111ADC010918E071F778091E30027
:105110008078812B8093E3008091E800877F8093E3
:10512000E8009DDD8091E80080FFFCCF8091E300E6
:1051300080688093E30082E0111183E080938B0705
:105140008FC08058823008F08BC080918E0790917C
:105150008F078C3D23E0920799F583E08A838AE2EA
:1051600089834FB7F894DE01139620E03EE051E2C8
:10517000E32FF0E050935700E49120FF03C0E29545
:10518000EF703F5FEF708E2F90E0EA30B8F0C79677
:105190008D939D932F5F243159F74FBF8091E80085
:1051A000877F8093E8006AE270E0CE01019666DCBA
:1051B0008091E8008B778093E80052C0C096E8CFDA
:1051C0006091900770919107AE014F5F5F4F99DB3F
:1051D000BC01892B09F444C09091E800977F90931B
:1051E000E80089819A81A8DCE3CF8038C9F58091F5
:1051F000E800877F8093E800809187078093F10023
:1052000049CF81112DC090918E07923048F5809141
:10521000E800877F8093E8009093870720DD8091E6
:105220008707882311F084E005C08091E30087FDA3
:10523000FACF81E080938B075EDA12C080918E07EF
:10524000813071F481E0933009F080E08093890728
:105250001092E9008091E800877F8093E800FFDCEE
:105260008091E80083FF0AC08091E800877F8093E7
:10527000E8008091EB0080628093EB00AA96E3E067
:1052800090C00895CF9380918B07882399F0C091A7
:10529000E900CF709091EC00892F817090FD80E83B
:1052A000C82B1092E9008091E80083FDAEDECF703C
:1052B000C093E900CF91089522DD10928B070895E5
:1052C000E8EDF0E08081806180838AE18A95F1F7E2
:1052D00000C08091D90081700895991B79E004C0C5
:1052E000991F961708F0961B881F7A95C9F7809525
:1052F0000895AA1BBB1B51E107C0AA1FBB1FA6171D
:10530000B70710F0A61BB70B881F991F5A95A9F76E
:1053100080959095BC01CD01089597FB072E16F45A
:10532000009406D077FD08D0E4DF07FC05D03EF4FA
:10533000909581959F4F0895709561957F4F089541
:10534000EE0FFF1F0590F491E02D09942F923F92EC
:105350004F925F926F927F928F929F92AF92BF9285
:10536000CF92DF92EF92FF920F931F93CF93DF9331
:10537000CDB7DEB7CA1BDB0B0FB6F894DEBF0FBE8E
:10538000CDBF09942A88398848885F846E847D84DB
:105390008C849B84AA84B984C884DF80EE80FD80DD
:1053A0000C811B81AA81B981CE0FD11D0FB6F89453
:1053B000DEBF0FBECDBFED010895FB01DC0102C0D1
:1053C00005900D9241505040D8F70895FB01DC0143
:1053D00004C08D910190801921F441505040C8F7CC
:1053E000881B990B0895FB01DC0102C001900D920E
:1053F00041505040D8F70895FB01DC0101900D9217
:105400000020E1F70895F999FECF92BD81BDF89A89
:10541000992780B50895A8E1B0E042E050E020C0AF
:10542000262FF999FECF92BD81BDF89A019700B45D
:10543000021639F01FBA20BD0FB6F894FA9AF99AFD
:105440000FBE08950396272FECDFEADF252FE9DF53
:10545000242FE7CF0196272FE4DFE2CFDC01CB0139
:10546000FC01F999FECF06C0F2BDE1BDF89A319674
:1054700000B40D9241505040B8F70895F894FFCF12
:105480004C084708500859086108310868083E0B65
:105490003E0B740B740B9C0B640B6E0C640BB80B03
:1054A000210C2E0C2E0C26284E2830294E2830296F
:0A54B0008128A1283029F5280129E0
:1054BA009402010000000100000000000000040145
:1054CA0000000000000001050000000000000106C5
:1054DA000000000407000000000000010B000000AB
:1054EA000000000021007F220007F4F5182345235D
:1054FA001B233F23014241534520434F4C454D4115
:10550A004B004241534520515745525459004C4F84
:10551A005745520052414953450041444A55535454
:10552A000058585858585800E200E900EA00B500F7
:10553A00B600B700CD008301CC008A019201940124
:10554A002102230224022502260227022A02B3008C
:10555A00B4006F0070009F01CB01818283E200E9F1
:10556A0000EA00B500B600B700CD008301CC008A7E
:10557A000192019401210223022402250226022714
:10558A00022A02B300B4006F0070009F01CB0181B0
:10559A008283F6F7313332366697C634BD02000885
:1055AA00101820283038383028201810080000FF3A
:0E55BA000100010000FFFF0000010001FF00E2
:00000001FF
