:1000000029C700005FC700005DC700000C940920ED
:1000100059C7000057C7000055C7000053C700006C
:1000200051C700004FC700000C94E2260C94AF2784
:100030000C94EC2147C7000045C7000043C70000EF
:1000400041C700003FC700003DC700003BC700009C
:1000500039C700000C948F2235C7000033C7000059
:1000600031C700002FC700002DC700002BC70000BC
:1000700029C7000027C7000025C7000023C70000CC
:1000800021C700001FC700001DC700001BC70000DC
:1000900019C7000017C7000015C7000013C70000EC
:1000A00011C700000FC700000DC7000001050205C1
:1000B0000305040505050000000601060206030607
:1000C00004060506000701070207030704070507E2
:1000D00001080208030804080508000001000200E6
:1000E00003000400050000000001010102010301FA
:1000F00004010501000201020202030204020502DA
:10010000010302030303040305030000716D6B2068
:10011000636F6D70696C65202D6B62206B6C6F7204
:10012000202D6B6D2064656661756C7400000000A5
:1001300000000000000000000000000000000000BF
:1001400000000000000000000000000000F0F0F0DF
:10015000F0FFFFFFFFFFFFFFFFFFFFFFFFFFFFFFBE
:10016000FFFFFFFFFFFFFFFFFFFFFFFFFFFFFFFF9F
:10017000FFFFFFFFFFFFFFFFFFFFFFFFFFFFFFFF8F
:10018000FFFFFFFFFFFFFFFFFFF0F0F0F0000000B8
:10019000000000000000000000000000000000005F
:1001A000000000000000000000000000000000004F
:1001B000000000000000000000000000000000003F
:1001C00000000000000000000000000000FFFFFF32
:1001D000FFFFFFFFFFFFFFFFFFFFFFFFFFFFFFFF2F
:1001E000FFFFFFFFFFFFFFFFFFFFFFFFFFFFFFFF1F
:1001F000FFFFFFFFFFFFFFFFFFFFFFFFFFFFFFFF0F
:10020000FFFFFFFFFFFFFFFFFFFFFFFFFF000000FB
:1002100000000000000000000000000000000000DE
:1002200000000000000000000000000000000000CE
:10023000000000000000000000F0F0F0F0FFFFFF01
:10024000FFFFFFFFFFFFFFFFFFFFFFFFFFFFFFFFBE
:10025000FFFFFFFFFF0F0F0F0F0000000000000067
:10026000000F0F0F0FFFFFFFFFFFFFFFFFFFFFFF5D
:10027000FFFFFFFFFF0F0F0F0F0000000000000047
:10028000000F0F0F0FFFFFFFFFFFFFFFFFFFFFFF3D
:10029000FFFFFFFFFFFFFFFFFFFFFFFFFFF0F0F09B
:1002A000F00000000000000000000000000000005E
:1002B000000000000000000000FFFFFFFFFFFFFF45
:1002C000FFFFFFFFFFFFFFFFFFFFFFFFFFFFFFFF3E
:1002D000FFFFFFFFFFF0F0F0F00000000000000063
:1002E00000F0F0F0F0FFFFFFFFFFFFFFFFFFFFFF59
:1002F000FFFFFFFFFFF0F0F0F00000000000000043
:1003000000F0F0F0F0FFFFFFFFFFFFFFFFFFFFFF38
:10031000FFFFFFFFFFFFFFFFFFFFFFFFFFFFFFFFED
:10032000FF000000000000000000000000000000CE
:10033000000000000000000000FFFFFFFFFFFFFFC4
:10034000FFFFFFFFFFFFFFFFFFFFFFFFFFFFFFFFBD
:10035000FFFFFFFFFFFFFFFFFFFFFFFFFFFFFFFFAD
:10036000FFFFFFFFFF0F0F0F0F0F0F0F0F0F0F0FED
:100370000F0F0F0F0FFFFFFFFFFFFFFFFFFFFFFF3D
:10038000FFFFFFFFFFFFFFFFFFFFFFFFFFFFFFFF7D
:10039000FFFFFFFFFFFFFFFFFFFFFFFFFFFFFFFF6D
:1003A000FF0000000000000000000000000000004E
:1003B0000000000000000000000F0F0F0FFFFFFF04
:1003C000FFFFFFFFFFFFFFFFFFFFFFFFFFFFFFFF3D
:1003D000FFFFFFFFFFFFFFFFFFFFFFFFFFFFFFFF2D
:1003E000FF0F0F0F0F00000000F0F0F0F0F0F0F042
:1003F000F0000000000F0F0F0FFFFFFFFFFFFFFFD8
:10040000FFFFFFFFFFFFFFFFFFFFFFFFFFFFFFFFFC
:10041000FFFFFFFFFFFFFFFFFFFFFFFFFF0F0F0FBC
:100420000F000000000000000000000000000000BD
:1004300000000000000000000000000000000000BC
:1004400000000000000000000000000000FFFFFFAF
:10045000FFFFFFFFFFFFFFFFFFFFFFFFFF0F0F0F7C
:100460000F00000000F0F0F0F0FFFFFFFFFFFFFFC4
:10047000FFF0F0F0F0000000000F0F0F0FFFFFFF84
:10048000FFFFFFFFFFFFFFFFFFFFFFFFFF00000079
:10049000000000000000000000000000000000005C
:1004A000000000000000000000000000000000004C
:1004B000000000000000000000000000000000003C
:1004C00000000000000000000000000000FFFFFF2F
:1004D000FFFFFFFFFFFFFFFFFFFFFFFFFFF0F0F059
:1004E000F0F0F0F0F0FFFFFFFFFFFFFFFFFFFFFF67
:1004F000FFFFFFFFFFF0F0F0F0F0F0F0F0FFFFFF84
:10050000FFFFFFFFFFFFFFFFFFFFFFFFFF000000F8
:1005100000000000000000000000000000000000DB
:1005200000000000000000000000000000E1E1E128
:10053000E1E1E1E1E1E1E1E1008F9000939400E18C
:10054000E100919200A0A1A2A3A4E100B7B800B578
:10055000B6008081828384E100E1E1E1E1E1E1E153
:10056000E1E1E1E1E1E100979800959600C0C0C0AB
:10057000C0C0C0C0C0C0C0C0C0C0C0C0C0C0C0C07B
:10058000C0C000000014001A000800150017002B5E
:100590000004001600070009000A004C001D001BA3
:1005A000000600190005000000E000B35D2C00E229
:1005B00000A8000000130012000C0018001C0034FA
:1005C0000033000F000E000D000B00E5003800376F
:1005D0000036001000110000002A00B45D2800E37E
:1005E00000AE00000014001A00090013000A002BDE
:1005F000000468156416611762070014001D001BD3
:100600000006001900050000004C00B35D2C002915
:1006100000E100000033001C0018000F000D003442
:100620000012680C64086111720B00310038003749
:1006300000360010000E0000002A00B45D2800E320
:1006400000AE0000003900530052002E002F022996
:10065000004A00500051004F002F0000004D004B99
:100660000016014E002602000001000100010001F9
:1006700000A80000005700610060005F00300234F5
:10068000022D005E005D005C003000010055005B43
:10069000005A005900270200006200010001000119
:1006A00000AE0000001E021F0220022102220200F2
:1006B000000000000000000000000000000000003A
:1006C0000000000000000000000100010001000126
:1006D00000A8000000310020141814240223020096
:1006E000000000000000000000000000000000000A
:1006F00000000000000000000001000100010001F6
:1007000000AE0000001F5CE95CC65CC45C00000039
:100710005C015CB15DC85C00000000B75DB65DB215
:100720005DCA5C0000000000000100010001000142
:1007300000A800000069004200410040000000687D
:100740000045003F003E003D000000440043003CE7
:10075000003B003A00000000000100010001000120
:1007600000AE0000AE00AF00DA1281FFD9F1DB204D
:10077000A4A62EAF00A0C000A1C800AED580A83F9F
:10078000D300408D1420000000000000003E5B4FAD
:100790005B3E003E6B4F6B3E001C3E7C3E1C0018D7
:1007A0003C7E3C18001C577D571C001C5E7F5E1C65
:1007B0000000183C180000FFE7C3E7FF0000182402
:1007C000180000FFE7DBE7FF0030483A060E00267E
:1007D0002979292600407F05050700407F05253F30
:1007E000005A3CE73C5A007F3E1C1C0800081C1CB9
:1007F0003E7F0014227F2214005F5F005F5F0006CF
:10080000097F017F00006689956A00606060606012
:100810000094B6FFB69400080C7E0C080010307EE1
:1008200030100008083E1C0800081C3E0808001E86
:1008300010101010000C1E0C1E0C0030383E38300A
:1008400000060E3E0E060000000000000000005FE3
:10085000000000000700070000143E143E14002EA4
:100860002A7F2A3A002012082402003749493750CB
:1008700000000807030000001C2241000000412284
:100880001C00002A1C7F1C2A0008083E08080000E3
:100890008070300000080808080800000060600050
:1008A000002010080402007F5149457F000804021F
:1008B0007F0000714949494F004141494977000F84
:1008C0001010107F004F49494971007E4949497015
:1008D0000001017109070077494949770007494933
:1008E000493F0000001400000000403400000000F8
:1008F0000814224100141414141400004122140896
:1009000000010159090F007F415D594F007F09091E
:10091000097F007F49494976007F41414141007F7D
:100920004141417E007F49494949007F0909090940
:10093000007F4141497B007F0808087F0000007F5D
:10094000000000704040407F007F08080877007F6B
:1009500040404040007F011F017F007F0408107F5E
:10096000007F4141417F007F0909090F007F4171EC
:10097000417F007F0909196F004749494979000102
:10098000017F0101007F4040407F001F2040201F69
:10099000007F407F407F007708080877004F484875
:1009A000487F00615149454300007F4141000002FA
:1009B00004081020000041417F00000402010204ED
:1009C00000404040404000000007080000605454D0
:1009D000547C007F44444478007C44444444007880
:1009E0004444447F007C5454545C00087F09090946
:1009F0000038A4A4A4FC007F040404780000007D57
:100A00000000007040407D00007F0808087600006C
:100A1000007F4000007C047C047C007C040404789B
:100A2000007C4444447C00FC2424243800382424E2
:100A300024FC007C04040404005C5454547400043A
:100A4000047F0404007C4040407C001C2040201CAB
:100A5000007C407C407C006C1010106C00BCA0A09E
:100A6000A0FC004464544C440000083641000000DF
:100A70000077000000004136080000020102040275
:100A8000003C2623263C000000E0F0F0F0F0FEFFE2
:100A90009F0F0F9FFFFFFFFF9F0F0F9FFFFEF0F0C5
:100AA000F0F0E00000FF000000000000C0300C0388
:100AB00000000000FF0000000000000000E010083F
:100AC00004020202010101010101020202040810F4
:100AD000E000000000FF010101010101010101012D
:100AE000FF7F515555457F415F5F5F7F007F417BB1
:100AF00077417F415F5F5F7F007F415D5D5D7F414B
:100B00005F5F5F7F00C0E0F0F0F0E0E6F7F3F060D9
:100B1000007C7C7C7C7C007C7C7C7C7C00F81CDE0B
:100B20001FFFFFFF1FDE1CF800C0E2B4F8F8F8F862
:100B3000F8B4E2C000000000000000000000000067
:100B4000000000000000000000070F0F0F0FFFFF64
:100B5000FFFF9F87E1F9F9E1879FFFFFFFFF0F0F7D
:100B60000F0F070000FF0000C0300C33C000000072
:100B700000000000FF000000000000003FC0000077
:100B80000000000000000000000000000000000065
:100B9000C03F000000FF08080808080838C8080817
:100BA0000F7E00007F00007800007E0000242412E9
:100BB00012242448482424121200000000000000DF
:100BC00000000000000F1F3F7F7F3F3F7F7F3810F6
:100BD000001F1F1F1F1F001F1F1F1F1F000F14219B
:100BE000404541454021140F007D7D7D7D7D7D7D0B
:100BF0007D7D7D7D00000000000000000000000001
:100C000000000000000000080808080808000000B4
:100C100000000000000000000000000000000000D4
:100C200000000000003F0C030000000000030C3037
:100C3000000000003F20202020202020200102046E
:100C4000081010102020202020201010100804026E
:100C500001000000003F0000000000000000030C45
:100C6000304000004000004000004000001C3E3EBC
:100C70003E1C003E1C1C0808003E3E3E3E3E00005E
:100C80000000000000000000000000000000000064
:100C90000000000000000000000000000000000054
:100CA0000000000000000000000000000000000044
:100CB0000000000000000000000000000000000034
:100CC0000000000000000000000000000000002AFA
:100CD0002B280000000000000000000000000000C1
:100CE000000029000000002C1E342021222434267C
:100CF00027252E362D3738271E1F20212223242575
:100D0000263333362E37381F0405060708090A0B29
:100D10000C0D0E0F101112131415161718191A1B9B
:100D20001C1D2F3130232D350405060708090A0B39
:100D30000C0D0E0F101112131415161718191A1B7B
:100D40001C1D2F3130354C00000000000000000059
:100D50000000000000000000000000000000000093
:100D600000000000000000000000007E0F00D4FF23
:100D7000FFFFC7000000780A034B004C004F0052F1
:100D80000000000C034700450049005300540000D8
:100D9000000403090409023B00020100A0FA09044F
:100DA000000001030101000921110100012240009E
:100DB0000705810308000109040100010300000088
:100DC00009211101000122320007058203200001E0
:100DD00012010002000000083C3A0100010001027B
:100DE000000105010980A101850319012AB7001539
:100DF0000126B700950175108100C0050C0901A1FD
:100E000001850419012AA002150126A00295017589
:100E1000108100C005010906A101050719E029E7B5
:100E2000150025019508750181029501750881015C
:100E30000507190029FF150026FF00950675088192
:100E4000000508190129059505750191029501759F
:100E5000039101C011241FBECFEFDAE0DEBFCDBF8A
:100E600004B603FE18C08091910790919207A0915B
:100E70009307B09194078730904BA740B04B59F43B
:100E80001092910710929207109293071092940774
:100E9000E0E0F8E3099512E0A0E0B1E0E4E9F4E570
:100EA00002C005900D92AA30B107D9F727E0AAE059
:100EB000B2E001C01D92A139B207E1F70E941219F8
:100EC0000C942B2A9DC808950895CF9360E08DE679
:100ED00095E00E94C21A8091650360E080FF55C0D2
:100EE0008AE695E00E94B11A60E089E595E00E94EB
:100EF000B11A60E082E595E00E94B11A8091650325
:100F000060E080FF45C08FE495E00E94B11A60E088
:100F100089E595E00E94B11A60E085E495E00E94C1
:100F2000B11A60E08DE695E00E94C21A0E94372156
:100F3000C82F60E082E495E0C0FD02C08FE395E039
:100F40000E94B11A60E08CE395E0C1FD02C08FE31E
:100F500095E00E94B11A60E089E395E0C2FD02C00D
:100F60008FE395E00E94B11A60E08DE295E00E9467
:100F7000B11A60E08FE395E00E94B11A60E08FE360
:100F800095E00E94B11ACF91089587E695E0AACF27
:100F90008CE495E0BACFCF93DF93EC0120914C0223
:100FA00030914D0280914E0290914F02822B932BF3
:100FB00084D162E671E08230A1F058F469E471E016
:100FC000882379F066E571E0813059F065E771E0DA
:100FD00008C068E671E0833021F06EE671E084308D
:100FE000A9F788E493E00E94E92980910C0290918E
:100FF0000D021816190634F068E473E08EE092E0F2
:101000000E94E92924E043E062E0CE01DAD0DF91DA
:10101000CF91089582E008950E94391C882351F0F1
:101020000E948F16882341F060E08EE092E00E94DB
:10103000AD1A4BDF80E0089560E074E08DE291E04E
:101040000E94C61AF7CFCF93815B9D4587309105EB
:1010500008F049C0FC01E35DF54DDB011296CC912F
:101060000C948D29CC23A1F08091650380FD0EC0E6
:1010700081608093650380916403909165030E9471
:10108000711195D4C0E08C2FCF9108958E7FF1CF50
:10109000CC23C9F381E084D0F5CF80E0CC2399F351
:1010A000FACF82E0CC2341F010D544E063E082E047
:1010B000ADD0E8CF83E0F6CF17D544E063E082E01F
:1010C000A5D0E1CF84E0CC2311F0FFD4DBCF0CD549
:1010D000DACFCC2341F060E08CE091E00E94CA1CA2
:1010E00088E278D2D0CFC1E0CECFCF93C62F811186
:1010F00008C089EAC11101C08AEA6CD281E0CF91AF
:1011000008958130D9F782E0CED4882391F38BEA19
:10111000C111F3CF8CEAF1CF81E0089594CF089507
:101120000895FECF0895A5E0B0E0E9E9F8E00C9459
:10113000A22949835A833091310289819A813111E0
:1011400016C0662389F0222379F07DD5182F682FE9
:1011500089819A8156D569817A81812F0E9497135E
:101160002596E3E00C94BE295DD5182FF4CF6BD5FE
:1011700069817A81F3CFFC01262F40815181628100
:1011800073818481D0CF089581E00895CF93DF9358
:10119000EC0160E0F0DFBE01C4DFDF91CF91089584
:1011A000CF93DF93C1E0D0E002C0CC0FDD1F8A9562
:1011B000E2F78C2F0E945D11CE013CD4DF91CF91DC
:1011C0000895E1E0F0E0DF0102C0AA0FBB1F6A95BD
:1011D000E2F7BD01DF0102C0AA0FBB1F4A95E2F78B
:1011E000AD01462B572B02C0EE0FFF1F2A95E2F7E9
:1011F0009A01282339232417350719F48E2B9F2BA6
:101200000895E095F0958E239F230895242F462F6F
:10121000682F80914C0290914D02D3DF25C4089530
:101220000C94F31408950C94F51408950895BFD305
:10123000FDDF2FEF84E39CE0215080409040E1F7F8
:1012400000C000000895F3DF0C94B3220895EFDF8F
:101250000C94D72208950F931F93CF93DF93EC0143
:1012600061E089DF8C01BE0159DF882381F08A812A
:101270008823B1F00F3D8CE5180771F0083A8DE531
:10128000180761F001151C4559F4DDDF80E0DF919E
:10129000CF911F910F9108950E94F311D8DFF6CFDF
:1012A000CE013ADFF4CF0E94CD213AD00C941C1C21
:1012B000089539D00C94D1210895292F332740E087
:1012C0002115310511F0C90148E09C0164E0369513
:1012D00027956A95E1F72115310511F04C5FC90199
:1012E0009C0136952795369527952115310511F0E6
:1012F0004E5FC90196958795892B09F04F5F842F22
:1013000008950895FECF089581E00895FDCF0895D2
:101310000895CF93C82FF6DF8C2FF8DFCF91089573
:1013200080E0F7CF08950E942321F3CF0895CF9353
:101330000E942321C82F809126028C1771F0C09340
:1013400026020E94582260932702709328028093FD
:10135000290290932A028C2FDCDFCF910895442339
:1013600019F08091330208959C0143E0369527954A
:101370004A95E1F7620F731F8770992721E030E0EB
:1013800001C0220F8A95EAF7FB019081922381E048
:1013900009F480E00895FC01E770FF2721E030E0C8
:1013A00001C0220FEA95EAF733E0969587953A95C2
:1013B000E1F7FB01E80FF91F8081442319F0282B86
:1013C0002083089520952823FBCF0F931F93CF935D
:1013D000DF938C01DC0111968C911197883038F5E0
:1013E000CC91C63020F5D0E0B6E08B9FC00DD11D6A
:1013F0001124F80142816BE272E0CE01B0DF40E0DF
:10140000882389F0CE01880F991FFC01E355FF4F17
:10141000E491D8011196EC931197FC01E455FF4F2C
:10142000E491EC9341E06BE272E0CE01B4DFDF9136
:10143000CF911F910F910895ABE0B0E0E2E2FAE0A6
:101440000C94A3294F83588769877A878B8761110A
:101450001CD78A859B85892B29F08F8198858923C4
:101460008F3F29F51E821D8285E0FE013796DE0141
:10147000119601900D928A95E1F78C819D81892BBF
:1014800059F449815A816B817C818D819E8113D66B
:101490002B96E2E00C94BF2989819A8189238F3FA2
:1014A00081F3CE01019670DE8111EBCFF1CFCE0139
:1014B00007968BDFD7CFFC0180819181F5D3929580
:1014C0009F70963051F4863F41F08091330291E055
:1014D000892780933302909332020895CF93C82FC7
:1014E000882399F08CEF8C0F813A88F46C2F8091CF
:1014F0000001909101010E947021882319F08C2F26
:101500006BD679D68C2F60D676D6CF91089580E2AF
:101510008C0F883040F4C77081E001C0880FCA95F5
:10152000EAF796D6F1CFEBE5EC0FE33040F4F0E0CC
:10153000E655FE4F808190E00E944421E6CFC85AD4
:10154000C73118F7EC2FF0E0EE0FFF1FE458FE4F05
:10155000808191810E945A21D8CF882321F19CEF6C
:10156000980F913A18F438D646C6089590E2980F2D
:10157000983048F4877091E001C0990F8A95EAF796
:10158000892F6CD6F1CF9BE5980F933028F490E02B
:1015900080E00C9444210895885A873120F490E02B
:1015A00080E00C945A2108951F93CF93DF93182F56
:1015B000EB0194DF209731F4812FCFDFDF91CF91C2
:1015C0001F9108958FE99FE00197F1F700C0000097
:1015D0002197F0CF70E060E0893311F460E570E0AE
:1015E000E3CF0895882311F033D605C608958823E4
:1015F00011F034D600C60895EF92FF920F931F9317
:10160000CF93DF937C01C62F972FF701228135817D
:1016100032953F70872F82958F70082F10E08C30A5
:1016200058F5F801EC5CF54D0C948D29D72FDF703F
:10163000907F11F0D295D07F222389F0DD2349F0ED
:1016400080E28C0F883010F0C11106C08D2F00D6BB
:10165000D2D58C2F43DF10C08D2F0AD6F9CF8C2F17
:101660007CDFDD2349F080E28C0F883010F0C1115F
:1016700010C08D2FF3D5BFD50850110904301105C6
:1016800018F40E94232145DECDB7DEB7E6E00C94C6
:10169000BB298D2FF3D5EFCF872F8F70907F90329E
:1016A00011F08295807FC13051F4222321F0363031
:1016B00018F798DFE1CF3530F8F699DFDDCF222338
:1016C00019F03323B1F3C5CF3323B9F3C93349F448
:1016D000FFEF27EE83E0F15020408040E1F700C0AB
:1016E00000008C2F3ADFC8CF872F869586958370B0
:1016F00061F0813009F0C0CF862F9370211102C0B4
:1017000090E080E00E945A21B7CF862F937021117C
:1017100002C090E080E00E944421AECF872F83700A
:1017200091F52111A9CF862F829586958770880F14
:10173000880F462F4F7050E0082E02C0440F551FEF
:101740000A94E2F730E020E064FF09C02FE030E0C7
:1017500002C0220F331F8A95E2F720953095792F2A
:10176000769576957370C901842B952B723039F07C
:1017700040F4713011F068D17FCF5ED17DCF6CD154
:101780007BCF58D179CF8695222311F0872F817096
:10179000882309F471CF8C2F829586958770880FE6
:1017A000880F4C2F4F7050E0082E02C0440F551F79
:1017B0000A94E2F730E020E0C4FF09C02FE030E0F7
:1017C00002C0220F331F8A95E2F720953095792FBA
:1017D000769576957370C901842B952B723039F00C
:1017E00040F4713011F0A8D147CF9ED145CFACD194
:1017F00043CF3AD141CFD72FDF70222321F08D2F55
:1018000064D18C2F56CF862FF2DE8D2F6DD134CF41
:10181000613F09F148F4603F89F0222349F1311119
:1018200018CF892F8F711BC0623FD9F0633FA9F792
:101830002223E1F0872F8F713DD11ECF222339F073
:10184000353008F019CF892F8F715FD115CF363021
:1018500008F012CFF8CF872F8F712223B9F235D13C
:101860000BCF872F8F712223D1F3D0CF04D104CF98
:10187000332359F0C93309F034CF9FEFE7EEF3E09B
:101880009150E040F040E1F72ACF892F8F71BECF11
:10189000623F99F1E8F4603F21F1613FB1F180913D
:1018A0003202332309F43DC0882341F08091330292
:1018B00091E0892780933302109232028C2F2111FC
:1018C000C9CE4BDE86E0F70111928A95E9F7D4CEB6
:1018D000643FB1F080F0653F11F72111CDCE81E07A
:1018E00007C0222309F4C8CE8091330291E08927F2
:1018F00080933302C1CE81E0282720933302BCCEEF
:101900002111BACE10923302B7CE222339F0809142
:101910003202882349F310923202AECE353020F3E2
:10192000ABCE882309F4A8CE2111A6CE8091330234
:1019300091E0892780933302EECF0F931F93CF93CB
:10194000DF93EC01688179818A81B7D18C0104D160
:1019500070D0B801CE0150DEDF91CF911F910F9171
:101960000895CF93DF93EC018B819C81892B29F023
:101970008881998189238F3F19F4DF91CF91089550
:10198000CE0169DC8823C9F3CE01D7DFCE01FEDBAF
:10199000F4CF90E080E00E94442190E080E00E943B
:1019A0005A2173D428C408951FD4F3CF08955DD469
:1019B000FBCF089592959F70963091F058F4925F06
:1019C0009F70923058F4803F19F030F4883E30F424
:1019D00081E008959A5FF4CF843FD1F380E00895C9
:1019E000883EB0F3813FD1F7F3CFFC018081918134
:1019F0005BD1E0CF0895A5E0B0E0E1E0FDE00C941C
:101A0000A3292596E2E00C94BF29A6E0B0E0EBE024
:101A1000FDE00C94A3292696E2E00C94BF290895DA
:101A2000FECF0895FDDF90934F0280934E02B1CF19
:101A300008950895F7CF089520914E0230914F02F6
:101A4000822B932BEFCF089520914E0230914F02BD
:101A500082239323E7CF089520914E0230914F02C5
:101A600082279327DFCF089596DA90934D028093D3
:101A70004C028FCF089590E080E0F6CF0895009754
:101A800029F481E0662371F080E00CC021E030E0B1
:101A900002C0220F331F6A95E2F72823392381E021
:101AA000232B91F30895682F80914C0290914D0261
:101AB000E6CF089521E030E0A90102C0440F551F90
:101AC0008A95E2F7CA01D0CF089521E030E002C044
:101AD000220F331F8A95E2F780914C0290914D02BC
:101AE000822B932BC1CF089521E030E002C0220F5A
:101AF000331F8A95E2F72095309580914C029091A2
:101B00004D0282239323B0CF089521E030E002C03C
:101B1000220F331F8A95E2F780914C0290914D027B
:101B200082279327A1CF089520914C0230914D0236
:101B3000822B932B99CF089520914C0230914D0226
:101B40008223932391CF089520914C0230914D022E
:101B50008227932789CF08950895262F277091E033
:101B600001C0990F2A95EAF723E0769567952A95A3
:101B7000E1F7660F771F660F771FFA01E60FF71F71
:101B800050E040E0682F70E08191DF0111979B01E8
:101B9000042E02C0369527950A94E2F7217021950C
:101BA0002827292328272C934F5F5F4F4430510566
:101BB00059F70895A82FA77023E0969587952A9541
:101BC000E1F7880F991F880F991FFB01E80FF91F94
:101BD00050E040E080E0219130E00A2E02C03695CE
:101BE00027950A94E2F721703327042E01C0220FB3
:101BF0000A94EAF7822B4F5F5F4F4430510559F743
:101C00000895262F983068F4863058F4682F70E0D5
:101C100086E0989F600D711D112444E352E0822FED
:101C20009CCF0895292F983060F4863050F490E0CE
:101C300064E372E036E0239F800D911D1124BACF3A
:101C4000089580E00895B0E0A0E0E9E2FEE00C94A1
:101C50009C297C0100914C0210914D0280914E0212
:101C600090914F02082B192BCFE0D0E0CC24C394E5
:101C7000D12CBC2EC6010C2E02C0880F991F0A94CD
:101C8000E2F780239123892B49F4219790F7B12C17
:101C90008B2DCDB7DEB7E9E00C94B829B7018C2FB6
:101CA00061D5019791F3F4CFCF93DF93EC01CBDFB4
:101CB000BE0158D5DF91CF9108951F93CF93DF9345
:101CC000EB0190913102992331F0CB01EDDFDF91EF
:101CD000CF911F910895882351F0CB01B4DF182FC5
:101CE000682FCE018EDFBE01812F3CD5F0CFCB0116
:101CF00099DF182FF8CF1F93CF93DF93C091500235
:101D000016E0809151028C1304C0DF91CF911F9196
:101D10000895D0E01C9FF0011D9FF00D1124EE5A94
:101D2000FD4F4081518162817381848195816DDE97
:101D30002196C770E6CF4091820250918302609154
:101D400084027091850280918602909187025DCE17
:101D500008951F93CF93DF9380918702807F09F0CE
:101D600047C080918402882309F442C080915002C8
:101D7000C09151026091820270918302A09185020C
:101D8000B0918602D62FD72316E0C81789F190E0CC
:101D9000109711F0DF3F19F401968770F6CF189F66
:101DA0009001199F300D1124F901EE5AFD4F418128
:101DB0004713F2CF40814613EFCF42814111ECCF60
:101DC000438154814A1B5B0B4A3A510528F78091A5
:101DD00087028F70806180938702F901E95AFD4F75
:101DE00080818F708061808382E892E0BADD83DF3A
:101DF000DF91CF911F910895A1E1B0E0E2E0FFE013
:101E00000C949B298C0185E0F801DE011D96019060
:101E10000D928A95E1F7F801E28082E8C82E82E00F
:101E2000D82E60918502709186026115710509F4C2
:101E300029C19091820220918302892F82238F3FB2
:101E400009F420C140815181A380B480F0908402C4
:101E5000F501E61BF70BFF2009F4E8C0809187022B
:101E6000382F307FEA3AF10508F0A6C0311169C079
:101E7000FE2C251314C0941312C0E11010C08F70F3
:101E800080618093870257DFC6016BDD80918702F6
:101E9000F80185838F2D6196EAE00C94B729A1148F
:101EA000B10429F0842F85238F3F09F001C180E020
:101EB000F82FF170DF2E80FF3AC080915002209100
:101EC000510236E0821314C04D875E878D859E8552
:101ED000EBDE292F22952F702230F0F0243018F5F8
:101EE0009F70F1F0F8019581907FD1F4D12C1DC045
:101EF00090E0389FF001399FF00D1124EE5AFD4F0C
:101F00006181651306C06081641303C06281E612BB
:101F10000EC001968770D6CF9F7011F0882331F3E1
:101F2000805E883018F3C8011CDDFD2CB3CFEE2095
:101F300009F4B0CF80918702816080938702F12CF1
:101F4000A9CF251312C0941310C0E1100EC0F801E0
:101F50008583C80106DD86E0F801A2E8B2E00190C1
:101F60000D928A95E1F7E7DE95CFC8013EDD882323
:101F700001F1EE20F1F080918702803268F020912B
:101F800082023091830238872F831986BB86AA8606
:101F90008C87CE010796E5DC86E0F801A2E8B2E086
:101FA00001900D928A95E1F7D4DEC5DEFF24F3940B
:101FB00071CFC801D6DCFACF311110C07A2DB98AA1
:101FC000A88A6E2D898917DD82E892E0CADC86E056
:101FD000F60111928A95E9F7AEDEB1CF25130EC056
:101FE00094130CC0E1100AC0F8018583C801B9DC64
:101FF00086E0F60111928A95E9F74CCFC801F5DC2D
:102000008823B9F2EE20A9F280918702803208F489
:10201000C3CF20918202309183023A8329831B82AD
:10202000BD82AC828E83CE010196B5CFEA3AF1052E
:10203000E8F4FE2CEE2009F4BCCF25130BC094135A
:1020400009C086E0F801A2E8B2E001900D928A95FD
:10205000E1F720CFC801C9DC81119ECF80918702B2
:10206000816080938702C8017CDC14CF7A2DB98A05
:10207000A88A6E2D8989BFDC86E0F60111928A95C7
:10208000E9F771CFEE2009F494CFC801AEDCF82E49
:10209000882309F48ECF86E0F801A2E8B2E001902F
:1020A0000D928A95E1F782E892E005DA52DE5BCF85
:1020B00081E08E25FDCEACE0B0E0E1E6F0E10C94ED
:1020C000A2294F83588769877A878B879C87CE019F
:1020D000079692DE882369F08A859B85892B39F0E3
:1020E0004F815885842F85238F3F09F067C016E004
:1020F0005BC086E0FE013796DE01119601900D92DD
:102100008A95E1F78A859B85892B89F38F8198854C
:1021100089238F3F61F32091510230E0C90101967C
:1021200087709927409150024817190669F43FDCDF
:10213000109251021092500286E0E2E8F2E0DF01D4
:102140001D928A95E9F7D3CF96E0929FD001939F95
:10215000B00D1124AE5ABD4FFE01319601900D9283
:102160009A95E1F780935102C6DDC1CF819FC001EE
:1021700011248E5A9D4F40DE8823E1F0E0915002F9
:102180001E9FF0011124EE5AFD4F40815181628162
:1021900073818481958139DC8091500290E00196B1
:1021A000877099278093500280915002909151023C
:1021B0008913DCCF2C96E3E00C94BE2969857A85DF
:1021C0008B859C8522DC93CF682F809100019091B4
:1021D00001010C94A6210895682F8091000190912F
:1021E00001010C94A82108958091000190910101B2
:1021F0000C94AA210895CF93DF93E0910001F09110
:102200000101809199028083E0910001F091010128
:10221000808190919802892B8083C0910001D09198
:10222000010148E050E068E872E0CE010E94D32945
:10223000892B59F088E0FE01A8E8B2E001900D92E8
:102240008A95E1F7CE010E943921DF91CF9108955F
:1022500090919902892B809399020895809590918D
:1022600099029823909399020895109299020895E3
:1022700090919802892B809398020895809590916F
:1022800098029823909398020895109298020895C6
:1022900090E080E00E94F82921E0883E9E4F09F0FE
:1022A00020E0822F089582E090E00C94F0290895B8
:1022B00083E090E00C94F0290895682F83E090E08B
:1022C0000C94FD290895CF9384E090E00E94F029BA
:1022D000C82F82E290E00E94F029982F8C2FCF9196
:1022E0000895CF93C92F682F84E090E00E94FD29C4
:1022F0006C2F82E290E00E94FD29CF910895AB01FE
:10230000BC018FE090E00C940F2A0895AB01BC0152
:1023100083E190E00C940F2A089560E070E0CB0117
:10232000F5CF089560E070E0CB01E9DFF6CF0895C6
:1023300068EE7EEF90E080E00E94172A60E082E085
:1023400090E00E94FD2960E083E090E00E94FD297A
:1023500010924F0210924E0260E084E090E00E94E2
:10236000FD2964E082E290E00E94FD2960E085E0C2
:1023700090E00E94FD2960E086E090E00E94FD2947
:102380006FEF87E090E00E94FD2940E050E0BA0145
:1023900088E090E00E940F2A60E08DE090E00E94CB
:1023A000FD2940E050E0BA0188E190E00E940F2A48
:1023B00060E087E190E00E94FD2940E050E0BA0132
:1023C0008CE190E00E940F2A70E060E080E290E0F3
:1023D0000E94172A40E050E0BA0188E190E00E9494
:1023E0000F2AA0CF0895A4CF08950E945822609389
:1023F000AA027093AB028093AC029093AD026093FB
:10240000A6027093A7028093A8029093A902089550
:102410000E9458226093AA027093AB028093AC0290
:102420009093AD026093A2027093A3028093A402E2
:102430009093A502089508950895FECF08950C94F1
:102440006307089588ED94E10E941921F4DFF5CF28
:10245000089565C4089508950895FDDFFDCF08959A
:10246000AAD20C94880908950E94432263D271D4A1
:10247000BCD3F6DFE0D680E035D70E943B1D70D498
:10248000DECF0895AAE0B0E0E8E4F2E10C949A29E6
:10249000CDD3C82E8111A9DF8AE9A82E82E0B82EFB
:1024A00010E000E0902E802FA3D2E82EF501F190ED
:1024B0005F01F816A9F18091AE0281FD9FD28F2DA8
:1024C0008E25D12CFF24F394982F9F2121F1C1DF79
:1024D000882399F0DE829F82EF2081E009F480E07A
:1024E00088870E944C228160782F9A8789874E8145
:1024F0005F8168858A850E941C0AF801E656FD4FB7
:102500008081F826F08281E0C11001C080E02A9627
:10251000EBE00C94B629D394FF0CF6E0DF12D4CF95
:102520000F5F1F4F0830110509F0BCCF8FEF898373
:102530008A831B820E944C228160782F9D838C832A
:1025400049815A816B818D810E941C0ADCCFCF9317
:10255000DF9398DFD82FE3D30E94BE1DC82F8111CF
:1025600057DF0E943B1CD11101C0C1110E94061B04
:102570000E949709DF91CF910895CF93DF93F5D013
:10258000EC01811521E5920778F5811530E5930777
:1025900008F09DC08F3B910580F4883A910508F0C2
:1025A0008BC0853A910508F07FC08430910588F48E
:1025B000019779F0D0E0C0E00CC08115904268F43A
:1025C000C11581E0D80728F4CE01805E91090897F3
:1025D00088F7CE01DF91CF910895C11590E4D90716
:1025E00048F3DF70D06AF5CF811527E59207B8F57B
:1025F000811536E5930708F097C081159345B0F42F
:10260000C11582E5D80708F47EC0CE0183709927F2
:1026100021E030E002C0220F331F8A95E2F7C69511
:10262000C69580E2C89FE001112469C0C11594E5F8
:10263000D90708F0BFCFCE018370992721E030E0A1
:1026400002C0220F331F8A95E2F7C695C69590E225
:10265000C99FE0011124C22BD32BDA68BACF8115B0
:102660002AE5920778F4811539E5930708F050C000
:10267000811548E5940708F49DCFD82FCC27C06F6B
:10268000D06AA7CF90568115904208F093CF8D2F36
:102690008F710DD190E0982F882788279F719C011A
:1026A0002C2BE901D06295CFC55AD0E0C552DE4F40
:1026B000C881D0E0D0648DCFC85AD0E0CC0FDD1FE8
:1026C000C355DE4F0990D881C02DD46482CF64E019
:1026D000969587956A95E1F783702C2F2695269518
:1026E000237040E2249F90011124382B8C2F83709B
:1026F000C1E0D0E002C0CC0FDD1F8A95E2F7C22B0B
:10270000D32BDC6866CFDC2FCC27C16FD06A61CFBA
:102710008F70CDD034E0D695C7953A95E1F7CF705C
:102720009C2FEC01D06955CFDD27D06652CF972F73
:102730007830A8F4663098F470E026E0929F600D3F
:10274000711D1124FB0190E3899FE00DF11D1124FF
:10275000EE0FFF1FED57FA4F85919491089580E099
:1027600090E00895E4DF09CF089582389105B9F12A
:10277000B0F48133910509F47DC048F489329105A4
:1027800009F46DC08A32910509F47BC00895853340
:10279000910509F45FC08933910509F10895833EDD
:1027A0009105D9F138F4803E910529F1823E9105D9
:1027B00079F10895863E9105D9F1873E910509F496
:1027C0003EC0843E910541F52091650321FF24C060
:1027D0008091640384FD19C087EE90E008952091F4
:1027E0006403237009F05AC02091650323FF14C0CD
:1027F00089E290E008952091640320FD38C0309173
:10280000650330FF09C024FF43C090E080E00895D5
:102810002091640322FDF7CF08952091640322FDE7
:102820003AC03091650330FD39C024FFF5CFEDCFBC
:102830002091640323FFF0CF24FDE7CFCDCF20917B
:10284000640323FD2EC03091650331FFEECF84EE8B
:1028500090E008952091640325FFDECFC9CF209139
:10286000640325FD21C02091650323FFD5CF89E3B3
:1028700090E0D2CF2091640326FFCECF8AE290E091
:1028800008952091640326FFC7CF81E390E0089567
:1028900083EE90E0089582EE90E0089580EE90E05F
:1028A000089586EE90E0089585E390E00895909174
:1028B000640392FF06C0282F28712830F9F4877F1F
:1028C000846093FF06C0282F28712831F1F4877E99
:1028D00084612091650320FF06C0382F387138309D
:1028E000D9F4877F816021FF06C0282F2871283105
:1028F000D1F4877E816194FD877E0895282F24710D
:102900002430F9F68B7F8860DCCF282F24712431A6
:1029100001F78B7E8861DDCF382F3171313019F7A7
:102920008E7F8860E0CF282F2171213121F78E7EA4
:102930008861E1CF109260031092610310926203EC
:10294000109263030895CF92DF92EF92FF926B0192
:102950007C01E5D181110EC00E945822C61AD70A07
:10296000E80AF90AC0926003D0926103E092620320
:10297000F0926303FF90EF90DF90CF9008950F9354
:102980001F93CDD1882329F00E9458221F910F91C7
:1029900008950E94582200916003109161032091D4
:1029A000620330916303600F711F821F931FEECF8C
:1029B00080E0089508956CDC811101C014DD73DCA2
:1029C0008093AE0280DC9093650380936403F2DF12
:1029D0006FDC90E02FD880914C0290914D020C94C6
:1029E000CB0708950895FECF08950C9464070895C9
:1029F000E82FF0E0E159FC4F80810895089580EAC6
:102A00008A95F1F7089500C00895F9CF08950895C3
:102A1000FECF0895EF92FF921F93CF93DF9300D0E4
:102A200000D0CDB7DEB77BD1182F60917703882314
:102A300009F446C019821A821B821C82862F90E0FC
:102A40009E012F5F3F4F7901B90181599C4F94D16D
:102A50008823E9F08091660390E044E050E0B701FC
:102A600081599C4F0E94D32921E02093AF02892BEA
:102A7000C9F410E00E941309812F0F900F900F905E
:102A80000F90DF91CF911F91FF90EF90089580916B
:102A9000AF02882371F384E0F70111928A95E9F778
:102AA0001092AF02E0916603F0E0E159FC4F89819A
:102AB0009A81AB81BC8180839183A283B383DACF77
:102AC00070E061597C4F8091660390E081599C4F82
:102AD000D8D19EDFD1CFF894E82FE295EF70F0E0E7
:102AE00031A1282F2F7081E090E001C0880F2A9536
:102AF000EAF7982F9095932391A392A1892B82A313
:102B000078940895CF93DF9386E6E5DF87E9E3DFE6
:102B100086ECE1DF84E3DFDFCEEDD1E089918F3F0A
:102B200009F0D9DF81E0C43ED807C1F7DF91CF912A
:102B30000895B0E0A0E0EFE9F5E10C949D29EC01E7
:102B4000D62E062F10E0C8018C519E4F7C01FC014F
:102B500080818F3F09F442C0F894E82FE295EF702E
:102B6000F0E091A18F7021E030E001C0220F8A9542
:102B7000EAF7892F822B81A382A12095282322A303
:102B8000789441DFEEEDF1E044EE51E031E0C12C0C
:102B900021912F3F41F1A22FA295AF70B0E0909606
:102BA0008C9190E02F7002C0959587952A95E2F759
:102BB00080FD19C0832FC82A330F4E175F0741F7D6
:102BC000F70180818F3F09F086DF61E0C11001C00D
:102BD00060E08D2D1ADFC00FD11FC882CDB7DEB7E0
:102BE000E8E00C94B92980E0E6CF80910201809161
:102BF000020194E0811190E09093770384E0891BB7
:102C0000809366037FDF88E0EFE6F3E0DF01982F33
:102C10001D929A95E9F7E7E6F3E0DF011D928A95A8
:102C2000E9F784E03ED00C9410090895A8E0B0E0E4
:102C3000ECE1F6E10C94A0298E010F5F1F4F88E0B4
:102C4000F80111928A95E9F7F12C6F2DC80171DF17
:102C5000F394F4E0FF12F9CF48E050E0B80187E6C2
:102C600093E00E94D32921E0009709F420E0892B0A
:102C700041F088E0F801A7E6B3E001900D928A9553
:102C8000E1F76091770370E061597C4F44E087E69B
:102C900093E008D0182FBEDE812B2896E5E00C9437
:102CA000BC290895CF92DF92EF92FF920F931F936A
:102CB000CF936C017B01042F222349F081E08093A4
:102CC000B2020E944C229093B1028093B002C09154
:102CD000B202C1110AC0C0E08C2FCF911F910F9199
:102CE000FF90EF90DF90CF9008958091B002909187
:102CF000B1020E946422059770F310E0A801B601AA
:102D0000C7010E94D329892B41F0A801B601C70150
:102D10000E94E0291092B202DFCFC0E0FBCF809189
:102D2000B502811107C00E944D29882351F081E02E
:102D30008093B50281E09091B502913009F080E076
:102D4000089582E08093B5020E944929F3CFE7CF2E
:102D50000895FDDF80930201E2DF811142C00895F2
:102D6000DEDF811101C040C0089581E09091B6027C
:102D70009A3008F080E008950F931F93CF93DF936C
:102D8000EC018B018091B6028A30B0F4B801CE011B
:102D900076D0C82F811122C08091B6028F3FB9F43E
:102DA0000E944C229093B4028093B3028C2FDF9147
:102DB000CF911F910F9108958091B3029091B40229
:102DC0000E946422843F914008F7C0E0EFCF8F5FFC
:102DD0008093B6028A3020F7C1E0E8CF1092B602A5
:102DE000E5CF0C94C51F08950C94C81F0895B0E05A
:102DF000A0E0EDEFF6E10C949E297901C82F880F31
:102E0000DD0B41155105A9F0FE0193E0EE0FFF1F08
:102E10009A95E1F7ED5FFE4F8181928189549D4F34
:102E2000208130E04217530708F49A01A9010E945B
:102E3000E029CE010E94A920D82E8823D1F00115C7
:102E40001105B9F083E0CC0FDD1F8A95E1F7FE0193
:102E5000ED5FFE4F438150E00417150708F4A80109
:102E6000CD5FDE4F6C817D8169547D4FC7010E942B
:102E7000E0298D2DCDB7DEB7E7E00C94BA2957C114
:102E800008957AC10895A4E0B0E0E9E4F7E10C9474
:102E9000A1296091D3027091D4028091D5029091C2
:102EA000D6020E94732211E06436710581059105F6
:102EB00008F165DD6E5F7F4F8F4F9F4F69837A8387
:102EC0008B839C8310E000E030E020E044E050E0A1
:102ED000BE016F5F7F4F84E08ADF182F882351F097
:102EE0000E9458226093D3027093D4028093D5023B
:102EF0009093D602812F2496E4E00C94BD29A1E0A2
:102F0000B0E0E5E8F7E10C949829762E4A015901E2
:102F1000680101E010E09E012F5F3F4F50E040E06C
:102F200070E060E064DF182F882381F1F401608194
:102F30007181828193810E947322643671058105BB
:102F40009105F0F08701950150E040E070E060E00D
:102F5000872D4DDFB82EB701C6016ED111E09981E2
:102F6000981310E01B2139F00E945822F40160836D
:102F7000718382839383812F2196EDE00C94B42991
:102F8000B701C60159D199818913DCCFA701B601D8
:102F9000C5010E94E029EFCFA1E0B0E0E2EDF7E14A
:102FA0000C949F290091E8011091E9010A5F1F4FDD
:102FB000EE24E394F12C9E012F5F3F4F4FEC52E043
:102FC00063E082E09CDF182F882319F0CE01019680
:102FD00063D6812F2196E6E00C94BB29A4E0B0E0F3
:102FE000E4EFF7E10C949D296B010091E801109149
:102FF000E9010F5F1F4F84E0E82EF12C9E012F5F47
:103000003F4F4BEC52E061E080E079DF882361F0D4
:1030100049815A816B817C814093C7025093C802D9
:103020006093C9027093CA024091C7025091C802CE
:103030006091C9027091CA02F60140835183628394
:1030400073832496E8E00C94B929B0E0A0E0EBE2A9
:10305000F8E10C949B297C015B016A0186DE01E0AA
:1030600010E0882311F00AE010E0C1E0D0E0B501E3
:10307000C701F6010995811104C021960C171D079F
:103080002CF4CDB7DEB7EAE00C94B729CC9F9001C1
:10309000CD9F300D300D112490E080E045E34A953E
:1030A000F1F70000019682179307C1F7E0CFA1E086
:1030B000B0E0EDE5F8E10C94A129D8D3082F89837D
:1030C000E091E801F091E90113856091D7027091D8
:1030D000D8028091D9029091DA020E94732264365C
:1030E00071058105910530F4812F90E011E00817FA
:1030F0001906C1F010E000E030E020E041E050E0CF
:10310000BE016F5F7F4F85E072DE182F882351F07C
:103110000E9458226093D7027093D8028093D902FC
:103120009093DA02812F2196E4E00C94BD290F934D
:103130001F93CF93DF93EC018B014EEE57E185DFB8
:10314000811106C080E0DF91CF911F910F9108950A
:103150004CEC57E1B801CE0178DF882399F343E4C2
:1031600057E1B801CE0171DF882361F347E558E1EB
:10317000B801CE016ADFE7CFA1E0B0E0E2ECF8E110
:103180000C949D290091E8011091E901C801019674
:1031900024E0FB01DC0101900D922A95E1F764E047
:1031A00070E04AD0F8018083CE0101966AD589810A
:1031B000F801868361E070E0CE0101963DD0F80110
:1031C00085836781708581859285C090C302D09088
:1031D000C402E090C502F090C6026C157D058E0514
:1031E0009F0549F06093C3027093C4028093C502A7
:1031F0009093C602A8DBF8018385882329F006D2C4
:103200002196E8E00C94B92917D3FACF0E944924FB
:103210002BD90C94532408950E94572498D90C94C8
:103220006D2408950E94E5210E9430240BD9EEDF21
:10323000F3DF13D9FDCF0895FC01680F791F8FEFDD
:1032400091E36E177F0709F408952191822728E002
:1032500030E087FF06C0880F892721503109C9F760
:10326000F0CF880FFACFB0E0A0E0E9E3F9E10C94E9
:103270009D296C017B0164E670E088E755D5EC017F
:1032800097FD11C010E000E0F601E00FF11F8491FE
:1032900064E670E0AFD5EC01892B29F40F5F1F4F76
:1032A0000E151F0589F715D6CE01CDB7DEB7E8E0BC
:1032B0000C94B9290895FECF0895E8E7F3E080E083
:1032C00094E0DF019C011D9221503040E1F7F09322
:1032D0007F07E0937E078FEF9FEF90932703809304
:1032E000260308950E940A08E6DF8093220380FDEA
:1032F0000DC080E88093210311D56DE070E08AE76E
:1033000097E0B1DF892B21F080E0089580E4F2CFCF
:103310008091220363E070E081FD23C087E797E09E
:10332000A2DF892B89F76DE070E087E697E09BDFED
:10333000892B51F70E945822605A75418F4F9F4F39
:1033400060937A0770937B0780937C0790937D0747
:10335000B4DF81E08093250380932403109223033C
:10336000089584E797E0DCCF2091210336E0839F26
:10337000C0011124629F800D911D1124811524E04C
:10338000920714F090E080E088589C4F90937F075C
:1033900080937E07089520917E0730917F07225702
:1033A000334040912103642F70E0C9010E946629D7
:1033B000481B463010F4240F311D211584E03807D6
:1033C00010F030E020E028583C4F30937F072093E6
:1033D0007E0708951F93CF93DF93162F8A3031F421
:1033E00081E06FD0DF91CF911F9108958D3011F45E
:1033F00080E0F7CFC0917E07D0917F0796E0FE0175
:10340000ABEDB2E001900D929A95E1F7803EB0F0FD
:1034100086E0FE0111928A95E9F711111BC0C09157
:103420007E07D0917F0746E050E0BE018BED92E031
:103430000E94D329892BE1F4AEDFD4CFF6E08F9F31
:10344000B00111246957784F46E050E0CE010E9448
:10345000CA29E3CFE0917E07F0917F079F012A5FA1
:103460003F4F2E173F07D9F2808180958193F9CF86
:10347000C857D340CE0126E0969587952A95E1F767
:1034800021E030E0A90102C0440F551F8A95E2F700
:10349000CA014091260350912703842B952B259632
:1034A00046E0D695C7954A95E1F702C0220F331F33
:1034B000CA95E2F7822B932B9093270380932603E0
:1034C000BBCFCF93382FE0917E07F0917F07E8576D
:1034D000F34020912103622F70E0CF010E94662902
:1034E000281B822F332361F066E00E945A29C82FDF
:1034F000C15010F4CF91089560E080E26BDFF8CF07
:103500009F01280F311D2115344018F080E0F0E0B4
:10351000E0E08E0F9F2F911D88589C4F90937F075E
:1035200080937E07E7CFFF920F931F93CF93DF9394
:10353000EC01F62EFC0101900020E9F78F0101500B
:103540001109C017D10728F0CDB7DEB7E5E00C941C
:10355000BC296F2D89913EDFF4CFE5DF81E0B1CF4B
:1035600008951F93CF93DF93EC01162FFE018491F2
:10357000811104C0DF91CF911F910895612F2ADF3F
:103580002196F4CFEEDF81E09CCF0895CF93DF93B7
:1035900020917E0730917F0728573340A901460FBD
:1035A000571F4130544020F060E074E0621B730B01
:1035B0004091260350912703FC01C901620F731F3C
:1035C000C1E0D0E08617970738F050932703409367
:1035D0002603DF91CF9108952491DC01A858BC4FB8
:1035E0003C91321781F02C939C01A6E036952795EB
:1035F000AA95E1F7DE0102C0AA0FBB1F2A95E2F7E8
:103600009D014A2B532B01963196DCCF80912503E7
:10361000811103C08091240308954AD7605A7541EF
:103620008F4F9F4F60937A0770937B0780937C073F
:1036300090937D07809124038111ECCF62E070E0CC
:1036400085E697E010DE892B29F781E0809324033B
:10365000E1CF2F923F925F926F927F928F929F92D3
:10366000AF92BF92CF92DF92EF92FF920F931F9390
:10367000CF93DF9380912503882369F0209126035F
:10368000309127032115310531F08091230361E04A
:1036900070E0882399F0DF91CF911F910F91FF90F7
:1036A000EF90DF90CF90BF90AF909F908F907F90E2
:1036B0006F905F903F902F9008958F5F082F10E0DC
:1036C0001B01082E02C0220C331C0A94E2F7A90148
:1036D00042215321452B89F39091220390FD40C054
:1036E0008295880F880F80748093350198013695F4
:1036F000279520933801815C80933601109239011F
:1037000024E630E047E050E063E371E088E79ED3D1
:10371000892B09F0C0CFA80126E0440F551F2A9538
:10372000E1F78091220380FD29C048585C4F04E6F0
:1037300010E020E430E060E488E7A7D3892B09F0AB
:10374000AACF64DFE101C095D095809126039091C6
:103750002703C823D923D0932703C09326039BCFE5
:10376000880F880F880F8093350110923801895F88
:103770008093360187E080933901C2CFE1EEF2E019
:1037800080E4DF011D928A95E9F7A2EFB1E00AEE2D
:1037900011E08AEFC82E81E0D82E97E0592E7724C9
:1037A00073948D91E80129918E01240F352F311DDD
:1037B00028583C4FE82FF0E0EF51FD4F90E080E0BB
:1037C000652C681A872C082E01C0880C0A94EAF729
:1037D0007901A12CE701B9907E01B820662D6A1904
:1037E0006770962E062E000C770BDB2D01C0DD0FC7
:1037F0009A94EAF77195619571096770772701C00E
:10380000B6946A95EAF7BD2A6081962E9B2890822D
:10381000A39468E0A612DECF019631968830910518
:1038200079F6CA16DB0609F0BCCF04E610E020E406
:1038300030E041EE52E07FCF809124039091250348
:10384000911103C091E089270895882361F062E017
:1038500070E083E697E007DD892B19F0809124035F
:1038600008951092240380912403ECCF80912403C7
:10387000089581E008950F931F9380912503882375
:1038800049F180917807909179071ED6C29750F040
:1038900003D6909379078093780760E080E064DD39
:1038A0000E940C08D6DE80912403882399F000D66C
:1038B00000917A0710917B0720917C0730917D075A
:1038C000601B710B820B930B6F3F7F4F8F4F9F4796
:1038D00008F4B2DF1F910F910895B0E0A0E0E3E794
:1038E000FCE10C949E29E82FF0E0E953F34FD490CB
:1038F000282F26952695269530E0F901E959F24FB3
:103900000491877010E0082E02C0159507950A945F
:10391000E2F701701127F901E95AF24FE490F12C16
:10392000082E02C0F594E7940A94E2F791E0E922A8
:10393000FF24F901E95BF24FC491D0E002C0D595B4
:10394000C7958A95E2F7C170DD270115110519F0B9
:1039500081EE0E946E0AE114F10419F086EE0E94D5
:103960006E0A8D2D0E94EA0AE114F10419F086EE28
:103970000E94AD0A0115110519F081EE0E94AD0AF1
:10398000CD2B19F08CE20E94EA0ACDB7DEB7E7E052
:103990000C94BA29EF92FF920F931F93CF93DF936A
:1039A0008C01F62E8AE0E82EF8018491882309F430
:1039B00053C0813009F04DC0E8012196FE01849189
:1039C000813091F42196FE0184910E94EA0A8E01D1
:1039D0000F5F1F4F8F2D815038F3EFE9FFE03197D4
:1039E000F1F700C00000F7CF823039F4E8012296E9
:1039F000FE0184910E946E0AEACF833039F4E80117
:103A00002296FE0184910E94AD0AE1CF8430F9F63E
:103A1000E8012296FE01249190E080E0FE013196BB
:103A20002053330B2A30310548F0019780F2EFE93B
:103A3000FFE03197F1F700C00000F7CFE89EA0014A
:103A4000E99E500D1124C901840F951F2491EF01A7
:103A5000E5CF43DFE801BBCFCDB7DEB7E6E00C949E
:103A6000BB298FE891E00197F1F700C000000895AD
:103A70000C94750808950F931F93CF93DF93909143
:103A8000020181E0982790932C03282F291B209373
:103A90002B039091020180932D039091020180935A
:103AA0002A0380910201811106C084EF80933B01BB
:103AB00085EF80933A0120913B01E22FE295EF7070
:103AC000F0E061A12F7081E090E0AC0101C0440FF3
:103AD0002A95EAF7342F3095362331A322A1242BDF
:103AE00022A320913A01E22FE295EF70F0E031A19C
:103AF0002F7001C0880F2A95EAF7982F909593238D
:103B000091A392A1892B82A3ACDF60912D0340E3A6
:103B100053E0CBE3D1E00AE311E0FA0126C029919A
:103B2000822F82958F7090E0DC0190968C9190E0CE
:103B30002F7002C0959587952A95E2F78170D8017C
:103B40009D918D01292F22952F7030E0D9019096FB
:103B50002C9130E09F7002C0359527959A95E2F739
:103B600090E020FD92E0892B81938E2F841B861795
:103B7000B0F2DF91CF911F910F910895CF92DF9214
:103B8000FF920F931F93CF93DF9310E000E084E048
:103B9000C82ED12C80912D03181748F0802FDF916B
:103BA000CF911F910F91FF90DF90CF900895C12F7B
:103BB000D0E0FE01E55CFE4F8081E82FE295EF70DA
:103BC000F0E0E0A1F0E08F7002C0F595E7958A95EE
:103BD000E2F7E170DE01A65CBE4F4C91A42FA295E6
:103BE000AF70B0E090968C9190E04F7002C09595C8
:103BF00087954A95E2F780FD42C080E08E2BDE017A
:103C0000A05DBC4FEC919E2F93709817B1F1EE0F11
:103C1000EE0FE82BEC93F0902C03F10EEF70F0E038
:103C2000E650FE4FC25DDC4F80819881890F88830A
:103C300020E084305CF0EF2DF0E0E85DFC4F808107
:103C40008F5F808360E08F2D13DF21E088818D3FBF
:103C50005CF4EF2DF0E0E85DFC4F808181508083C3
:103C600061E08F2D05DF21E08881082E000C990B83
:103C7000B6010E947A298883022B1F5F8BCF82E0D6
:103C8000BDCF40912D0350E060912C0370E0685D42
:103C90007C4F0C94E0290895B0E0A0E0E2E5FEE15D
:103CA0000C949D296C01D0E080E090912A03D917F3
:103CB00040F081110E940812CDB7DEB7E8E00C9405
:103CC000B929F0902B03FD0E0F2D10E0085D1C4F5D
:103CD000F601ED0FF11DC081F8019081C91BEC2E9A
:103CE0001E1444F09C2FC7FD90E0C91BC1110CC0ED
:103CF000DF5FDBCFEA94F80180818F5F808360E033
:103D00008F2DB6DE81E0ECCFCF5FF801808181504E
:103D1000808361E08F2DACDE81E0E8CF1092B900A6
:103D20008CE08093B8000895B0E0A0E0EAE9FEE1FD
:103D30000C949A29B82EEB01AFD36C01EE24E394D6
:103D4000F12CC431D10560F025E0E22EF12CCF3FFB
:103D5000DC0731F0CE0164E170E00E9466297B014E
:103D600084EAA82E94E8992E1092BC00A092BC0080
:103D700093D38C018091BC0087FF0DC08091B90066
:103D8000887F8830E9F08091B900887F8031C1F068
:103D90000FEF1FEF07C0C80197D3E816F90650F7D9
:103DA0000EEF1FEFCF3FDC07F9F2C6018DD3C81726
:103DB000D907D0F6C801CDB7DEB7EBE00C94B62931
:103DC000B092BB009092BC0067D38C018091BC0084
:103DD00087FF0AC08091B900887F883111F0803454
:103DE000B9F610E000E0E6CFC8016ED3E816F90698
:103DF00068F7D6CF0F931F93CF93DF93EB01809398
:103E0000BB0084E88093BC0047D38C018091BC0048
:103E100087FF11C02091B900287F81E090E028320F
:103E200011F490E080E0919581959109DF91CF9117
:103E30001F910F910895CF3FDC0741F3C80144D390
:103E4000C817D90718F78EEF9FEFF0CFB0E0A0E0CA
:103E5000ECE2FFE10C949D296B018A017901B90123
:103E600063DFE6010C0D1D1DC017D10711F097FF90
:103E700008C024E92093BC00CDB7DEB7E8E00C947D
:103E8000B929B7018991B6DFEFCFB0E0A0E0EBE44C
:103E9000FFE10C949D29C62F6A017901B80144DF26
:103EA00097FD0BC0B8018C2FA5DFE601EC0CFD1CC3
:103EB000CE15DF0511F097FF08C024E92093BC0060
:103EC000CDB7DEB7E8E00C94B929B801899192DF4B
:103ED000EFCF84E98093BC0008958EE14A9B02C035
:103EE0008150E1F74A9BFECF08955A9880E28A9567
:103EF000F1F75A9A0895FC013BE03A95F1F798E002
:103F000020E080E031E040E14A95F1F7880F4A9BDC
:103F100002C08160232742E04A95F1F7000040E1AA
:103F20004A95F1F7915079F790E19A95F1F799B1A7
:103F300032E03A95F1F7000040E14A95F1F792FB43
:103F4000992790F992272081920F90830895A1E0FC
:103F5000B0E0EDEAFFE10C949F2919828C017C010D
:103F6000E60EF11C0E151F0541F481E099819111B7
:103F700080E02196E6E00C94BB29AFDFCE010196EC
:103F8000BADFF80181938F01EDCF529A5A9A0895C2
:103F900052985A9AEA9AE9E6F0E080818F7C808311
:103FA00008956150770B91E001C0990F6A95EAF787
:103FB00020E031E0911108C0222391F05A9A80E26A
:103FC0008A95F1F75A980895492F482339F05A9A5B
:103FD000232740E24A95F1F79695ECCF5A98F9CF0E
:103FE0005A98EDCFFF920F931F93CF93DF93EC017D
:103FF0008C01060F111DC017D10729F4CDB7DEB70C
:10400000E5E00C94BC29F99070DF68E08F2DC9DFE2
:10401000F2CF1F920F920FB60F9211240F931F939E
:104020002F933F934F935F936F937F938F939F93C0
:10403000AF93BF93EF93FF93CF93DF930F92CDB7DF
:10404000DEB719824ADFCE01019655DF082F0695AB
:1040500006950695282F22952570902F9570290F8B
:10406000922F937026952695920F982797708981A5
:10407000982B09F058C0073008F055C080E18A95A8
:10408000F1F75A9A529A82E08A95F1F700C05A984D
:1040900088E0089F80011124D801AD5FBE4F1696BD
:1040A000ED91FC9117973097A9F06091E80170911C
:1040B000E90114962D913C911597260F371F119603
:1040C0008D919C911297680F791F13964C911397BD
:1040D0008C910995F801ED5FFE4F6381662349F0ED
:1040E0002091E8013091E90184819581820F931F2D
:1040F00079DFFBDE80E18A95F1F75A9852985A9A57
:1041000080E18A95F1F7F801ED5FFE4F608166234B
:1041100049F02091E8013091E90181819281820F7B
:10412000931F15DFDADE0F90DF91CF91FF91EF91B2
:10413000BF91AF919F918F917F916F915F914F91BF
:104140003F912F911F910F910F900FBE0F901F90D5
:1041500018950F931F93CF93DF93EC0107970CF003
:1041600049C0F894529A5A9885E08A95F1F7000070
:104170009C2F969595708C2F8570980F892F837042
:104180009695969523E0CC0FDD1F2A95E1F7980FC1
:104190008E01092BAADE00C068E0802F02DF80E1DB
:1041A0008A95F1F752985A9A4A9B1DC087E090E091
:1041B0004A991BC0FE01ED5FFE4F63816623F1F05B
:1041C0002091E8013091E90184819581820F931F4C
:1041D000BEDE811113C0529A5A9A7894DF91CF9122
:1041E0001F910F91089500C0DFCF019729F4529AD3
:1041F0005A9A789480E0F2CF00C0DACF6EDE80E287
:104200008A95F1F75A98529A80E18A95F1F7CD5F35
:10421000DE4F6881662349F02091E8013091E90181
:1042200089819A81820F931FDDDE5FDE789481E0C1
:10423000D5CF90930B0280930A0208959093380390
:104240008093370308950E948F16811103C08091D7
:1042500032030895E0913703F0913803309729F045
:104260000190F081E02D0995089580E00895EBCF4D
:104270000895E0913703F0913803309721F00280E0
:10428000F381E02D0995089520913503309136038F
:104290002817390771F09093360380933503E09126
:1042A0003703F0913803309721F00680F781E02D35
:1042B0000995089520913303309134032817390765
:1042C00071F09093340380933303E0913703F091BE
:1042D0003803309721F00084F185E02D0995089589
:1042E000662349F0FC01329608962191261729F0A1
:1042F000E817F907D1F780E0089581E008959C015F
:10430000FC0132969FEF80E04191461751F09F3FAC
:1043100019F4411101C0982F8F5F8630A9F79F3F94
:1043200009F40895290F311D97FD3A95F90162832B
:104330000895FC01329608962191261303C0DF01EF
:1043400011971C92E817F907B9F70895D8CF089587
:10435000F0CF0895029626E0FC0111922A95E9F724
:1043600008950895FECF0895811105C081E08093DE
:104370003903F8CF089582E0FACF83E080933903C0
:10438000F1CF0895F1CF089581E080933903EACF0A
:104390000895FACF089508950895FECF08950895D9
:1043A0000895F9CF0895CF93FADF0E941616F8DF2B
:1043B000C0E08C2F0E94F814811105C0CF5FC83077
:1043C000C1F7CF91089581E0FCCF85B7806885BFA4
:1043D00085B7806885BF08951F921FB61F9211246C
:1043E0008F939F93AF93BF9380913A03811113C032
:1043F0008091800790918107A0918207B0918307F7
:104400004196A11DB11D8093800790938107A093D1
:104410008207B0938307BF91AF919F918F911F90B7
:104420001FBE1F90189580918807843031F10E943B
:10443000530910923A0388E190E020E40FB6F89413
:10444000A895809360000FBE2093600083B7817FA2
:10445000846083BF83B7816083BF7894889583B776
:104460008E7F83BF0FB6F894A89580916000886115
:1044700080936000109260000FBE08950E94D70CD8
:104480000C945909089582E084BD93E095BD9AEF9C
:1044900097BD80936E0008952FB7F89480918007A0
:1044A00090918107A0918207B09183072FBF089553
:1044B0002FB7F894609180077091810780918207EF
:1044C000909183072FBF08959C014FB7F894809176
:1044D000800790918107A0918207B09183074FBF19
:1044E000821B930B0895CF92DF92EF92FF922FB72A
:1044F000F894C0908007D0908107E0908207F090F8
:1045000083072FBFA7019601261B370B480B590BBA
:10451000CA01B901FF90EF90DF90CF900895789491
:104520001F921FB61F9211248F939F93AF93BF9337
:104530008091800790918107A0918207B0918307B5
:104540000196A11DB11D8093800790938107A093D0
:104550008207B0938307BF91AF919F918F911F9076
:104560001FBE1F90189581E08093E00080E2809349
:10457000D8001092C9008FE19EE40197F1F700C0C6
:10458000000087E090EBDC01809391079093920705
:10459000A0939307B093940788E19CE00FB6F8943A
:1045A000A895809360000FBE90936000FFCF88E1D4
:1045B0009CE00FB6F894A895809360000FBE90938E
:1045C0006000FFCF8091460308950895CF93DF9355
:1045D000EC0181E08093E9008FEF9091E800815039
:1045E00095FD06C095ED9A95F1F700008111F5CF84
:1045F0008091E80085FF13C050E040E068E070E083
:10460000CE01DCD18091E8008E778093E80088E0CD
:10461000FE01AEE3B3E001900D928A95E1F7DF91E0
:10462000CF91089580933B0370933D0360933C03C7
:10463000809188078430F9F482E08093E9008FEF5D
:104640009091E800815095FD06C095ED9A95F1F79F
:1046500000008111F5CF8091E80085FF0CC050E08B
:1046600040E063E070E08BE393E0A8D18091E80044
:104670008E778093E8000895BC0184E0D3CF08953D
:10468000BC0183E0CFCF0895089580918707811101
:1046900007C022D379D38091E20084608093E20046
:1046A00008951092870708956FCE0895609184074A
:1046B00081E0611101C080E060CE0895909188078B
:1046C00081E0943009F080E0609184075BCE08952A
:1046D00042E061EC81E07CD242E261EC82E078D29F
:1046E0009091880781E0943009F080E06091840720
:1046F0003BCE089580918A07833009F45FC030F47F
:104700008130C9F1823009F49AC008958A3009F4E1
:1047100087C08B3009F46DC0893009F04EC080919C
:104720008907813209F049C080918D0790918E07E9
:10473000029708F042C08091E800877F8093E800EC
:104740008091E80082FF35C09091F3008091F200E3
:10475000029731F48091F100813011F0863021F41C
:104760008091F100809346038091E8008B778093DD
:10477000E80062D222C080918907813AF1F48091E9
:10478000E800877F8093E80080918D0790918E07E5
:10479000892B59F468E08EE393E070E05CD180915E
:1047A000E8008B778093E800089560E090E080E077
:1047B000F4CF809188078111C3CF08958091890734
:1047C000813AD9F780918D0790918E07892BA9F7AF
:1047D0008091E800877F8093E8008091E80080FF67
:1047E000FCCF809148018093F1008091E8008E77A2
:1047F000BECF80918907813201F780918D0790911A
:104800008E07892BD1F68091E800877F8093E8009E
:1048100013D280918B07809348010C94D70C089594
:1048200080918907813249F68091E800877F8093E3
:10483000E80002D280918C0780934703089580910D
:104840008907813A09F0B9CF8091E800877F80938A
:10485000E8008091E80080FFFCCF80914703C3CF40
:1048600084B7877F84BF0FB6F894A89580916000C5
:10487000886180936000109260000FBE80E890E035
:104880000FB6F89480936100909361000FBE81CDC4
:10489000089522D279D2E2EEF0E0808184608083B4
:1048A0007894DDC408958CE391E0C8CC089580919C
:1048B0008807853029F480918807853011F0DECD96
:1048C0000895B1DD809186078823A9F36CDD8823E4
:1048D00091F35ED00E94D70CEECF089501C00895E9
:1048E000292F33272330310519F168F421303105A0
:1048F00009F444C02230310509F445C090E080E05D
:1049000030E020E025C02132310549F12232310565
:10491000A9F780E490E024E13EE061157105C1F063
:1049200082E390E022EE3DE06130710589F0E6CF50
:1049300099278130910581F0009729F00297F1F6CF
:10494000E7E7FDE002C0E1E9FDE0849190E09F012E
:10495000FA01318320830895E3E8FDE0F6CF89E092
:1049600090E027EA3DE06115710591F389E090E060
:1049700020EC3DE06130710559F3C0CF82E190E059
:1049800020ED3DE0E5CF8BE390E025E93DE0E0CF91
:1049900080E189BD82E189BD09B400FEFDCF80912F
:1049A000D8008F7D8093D8008091E0008260809352
:1049B000E0008091E00081FDFCCF0895AF92BF92AE
:1049C000CF92DF92FF920F931F93CF93DF936C01EF
:1049D000EB018A0150D1F82E811123C00115110578
:1049E00039F0F80180819181C81BD90BC80ED91EFE
:1049F000B12CA12C2097A9F08091E80085FD21C061
:104A00008091E8008E778093E80001151105A1F0F0
:104A1000F80180819181A80EB91EB182A08285E043
:104A2000F82E8F2DDF91CF911F910F91FF90DF9086
:104A3000CF90BF90AF9008951ED18823D9F2F82E61
:104A4000F0CFF60181916F018093F1002197FFEF84
:104A5000AF1ABF0ACFCFFC0180918F0790919007CA
:104A600086179707A0F06115710529F49091E80069
:104A70009E779093E80090E06115710551F49111D3
:104A800008C08091E80082FF34C080E00895BC0136
:104A9000F2CF809188078823C1F18530C1F18091E0
:104AA000E80083FD30C08091E80082FDEACF80916C
:104AB000E80080FFE1CF8091F3002091F200382FD1
:104AC0006115710519F02830310558F091E0283052
:104AD000310509F090E02091E8002E772093E8005E
:104AE000CBCF81918093F100615071092F5F3F4FCF
:104AF000E7CF80918807882341F0853041F080918D
:104B0000E80083FFBECF81E0089582E0089583E04E
:104B10000895FC0180918F07909190078617970761
:104B2000A0F06115710529F48091E8008E778093DB
:104B3000E80090E06115710551F4911108C0809171
:104B4000E80082FF35C080E00895BC01F2CF80917B
:104B500088078823C9F18530C9F18091E80083FD79
:104B600031C08091E80082FDEACF8091E80080FFAB
:104B7000E1CF8091F3002091F200382F611571058B
:104B800019F02830310558F091E02830310509F04E
:104B900090E08091E8008E778093E800CBCF8491FD
:104BA0008093F1003196615071092F5F3F4FE6CF3E
:104BB00080918807882341F0853041F08091E8009A
:104BC00083FFBDCF81E0089582E0089583E00895DA
:104BD000982F973028F08F708093E90081E0089536
:104BE0009093E900242F762F50E0981731F07091C0
:104BF000EC002091ED005091F00021FD02C09F5F7C
:104C0000E8CF3091EB003E7F3093EB003091ED0028
:104C10003D7F3093ED003091EB0031603093EB003D
:104C20007093EC002093ED005093F0002091EE0083
:104C300027FDE5CF80E008958091890787FF13C0A5
:104C40008091E80082FF06C08091E8008B77809316
:104C5000E80004C0809188078111F2CF0895809107
:104C600088078823D9F38091E80080FFF8CF8091EE
:104C7000E8008E77ECCF2091E4003091E50095E6D6
:104C8000A9012091EC00822F817020FF06C0809145
:104C9000E80080FF06C080E008952091E80022FD32
:104CA0001AC080918807882389F0853089F0809127
:104CB000EB0085FD0FC02091E4003091E500421724
:104CC0005307F9F29150E1F684E0089582E00895E7
:104CD00083E0089581E0089568D06FD0E0EEF0E0C1
:104CE000808181608083E8EDF0E080818F77808330
:104CF00019BCA7EDB0E08C918E7F8C9380818F7E64
:104D000080831092870708950F931F93CF93DF93AB
:104D10004CD053D0C8EDD0E088818F7788838881CC
:104D20008068888388818F7D888319BC109288076A
:104D300010928407109286071092850700EE10E00B
:104D4000F80180818B7F808388818160888342E045
:104D500060E080E03DDFE1EEF0E080818E7F8083E7
:104D6000E2EEF0E0808181608083808188608083D2
:104D7000F80180818E7F8083888180618883DF91C4
:104D8000CF911F910F910895E8EDF0E080818F7E23
:104D90008083E7EDF0E080818160808384E082BFE2
:104DA00081E080938707B0CF0895E8EDF0E080813F
:104DB0008E7F80831092E20008951092DA001092A4
:104DC000E10008951F920F920FB60F9211242F93B6
:104DD0003F934F935F936F937F938F939F93AF9383
:104DE000BF93EF93FF938091E10082FF0AC080910F
:104DF000E20082FF06C08091E1008B7F8093E1009A
:104E00002DD28091DA0080FF18C08091D80080FFF9
:104E100014C08091DA008E7F8093DA008091D900EF
:104E200080FF91C080E189BD82E189BD09B400FEA7
:104E3000FDCF81E08093880728DC8091E10080FF2E
:104E400018C08091E20080FF14C08091E2008E7F44
:104E50008093E2008091E20080618093E200809183
:104E6000D80080628093D80019BC85E080938807C1
:104E70001DDC8091E10084FF2AC08091E20084FF64
:104E800026C080E189BD82E189BD89B5982F9170E6
:104E900080FFFBCF8091D8008F7D8093D8008091D8
:104EA000E1008F7E8093E1008091E2008F7E80930D
:104EB000E2008091E20081608093E20080918407AB
:104EC000882309F445C084E080938807F7DB80914C
:104ED000E10083FF27C08091E20083FF23C080911F
:104EE000E100877F8093E10082E080938807109241
:104EF00084078091E1008E7F8093E1008091E20041
:104F00008E7F8093E2008091E20080618093E200D6
:104F100042E060E080E05CDE8091F0008860809399
:104F2000F000C2DBFF91EF91BF91AF919F918F9104
:104F30007F916F915F914F913F912F910F900FBE95
:104F40000F901F90189519BC10928807AADB75CF97
:104F50008091E30087FD93E090938807B7CF1F927D
:104F60000F920FB60F9211242F933F934F935F939D
:104F70006F937F938F939F93AF93BF93CF93DF9361
:104F8000EF93FF93D091E900DF708091EC00C82F80
:104F9000C17080FDC0E81092E9008091F000877F29
:104FA0008093F00078941ED01092E9008091F00078
:104FB00088608093F000CD2BCF70C093E900FF9103
:104FC000EF91DF91CF91BF91AF919F918F917F91A1
:104FD0006F915F914F913F912F910F900FBE0F9066
:104FE0001F901895AAE2B0E0E7EFF7E2ABC189E8BD
:104FF00097E02091F100FC012193CF01F7E0813986
:105000009F07B9F777DB8091E80083FF16C1809195
:10501000890790918A079A3008F00FC1E92FF0E0D4
:10502000E05CF54D7AC1803899F0823809F005C10D
:1050300080918D078F70873008F0FFC08093E90062
:105040008091EB0085FB882780F91092E90006C06B
:105050008091850790918607911182609091E80078
:10506000977F9093E8008093F1001092F100809177
:10507000E8008E77DFC0882309F4CDC0823009F0C4
:10508000DCC080918B078111D0C080918D078F701B
:105090002FEF280F263008F0D0C08093E900209130
:1050A000EB0020FFC2C0933031F48091EB008062AE
:1050B0008093EB00BAC09091EB0090619093EB006D
:1050C00021E030E001C0220F8A95EAF72093EA0040
:1050D0001092EA008091EB008860EACF8111ADC0A8
:1050E00010918B071F778091E3008078812B80934C
:1050F000E3008091E800877F8093E8009DDD809148
:10510000E80080FFFCCF8091E30080688093E3009B
:1051100082E0111183E0809388078FC0805882302D
:1051200008F08BC080918B0790918C078C3D23E019
:10513000920799F583E08A838AE289834FB7F894CE
:10514000DE01139620E03EE051E2E32FF0E05093C1
:105150005700E49120FF03C0E295EF703F5FEF70CE
:105160008E2F90E0EA30B8F0C7968D939D932F5F15
:10517000243159F74FBF8091E800877F8093E80082
:105180006AE270E0CE01019666DC8091E8008B77E0
:105190008093E80052C0C096E8CF60918D0770916F
:1051A0008E07AE014F5F5F4F99DBBC01892B09F47D
:1051B00044C09091E800977F9093E80089819A819C
:1051C000A8DCE3CF8038C9F58091E800877F809321
:1051D000E800809184078093F10049CF81112DC0B0
:1051E00090918B07923048F58091E800877F8093FB
:1051F000E8009093840720DD80918407882311F0D4
:1052000084E005C08091E30087FDFACF81E08093C0
:1052100088075EDA12C080918B07813071F481E0DB
:10522000933009F080E0809386071092E900809126
:10523000E800877F8093E800FFDC8091E80083FF2F
:105240000AC08091E800877F8093E8008091EB009E
:1052500080628093EB00AA96E3E090C00895CF931C
:1052600080918807882399F0C091E900CF709091D0
:10527000EC00892F817090FD80E8C82B1092E90026
:105280008091E80083FDAEDECF70C093E900CF913E
:10529000089522DD109288070895E8EDF0E08081FE
:1052A000806180838AE18A95F1F700C08091D900FE
:1052B00081700895991B79E004C0991F961708F032
:1052C000961B881F7A95C9F780950895AA1BBB1B6A
:1052D00051E107C0AA1FBB1FA617B70710F0A61BF6
:1052E000B70B881F991F5A95A9F780959095BC0117
:1052F000CD01089597FB072E16F4009406D077FD94
:1053000008D0E4DF07FC05D03EF4909581959F4FCF
:105310000895709561957F4F0895EE0FFF1F0590DA
:10532000F491E02D09942F923F924F925F926F92E9
:105330007F928F929F92AF92BF92CF92DF92EF9225
:10534000FF920F931F93CF93DF93CDB7DEB7CA1BA6
:10535000DB0B0FB6F894DEBF0FBECDBF09942A88D1
:10536000398848885F846E847D848C849B84AA8479
:10537000B984C884DF80EE80FD800C811B81AA8106
:10538000B981CE0FD11D0FB6F894DEBF0FBECDBFD1
:10539000ED010895FB01DC0102C005900D92415022
:1053A0005040D8F70895FB01DC0104C08D910190B5
:1053B000801921F441505040C8F7881B990B08957B
:1053C000FB01DC0102C001900D9241505040D8F722
:1053D0000895FB01DC0101900D920020E1F7089592
:1053E000F999FECF92BD81BDF89A992780B50895AD
:1053F000A8E1B0E042E050E020C0262FF999FECFAE
:1054000092BD81BDF89A019700B4021639F01FBA17
:1054100020BD0FB6F894FA9AF99A0FBE0895039634
:10542000272FECDFEADF252FE9DF242FE7CF0196D6
:10543000272FE4DFE2CFDC01CB01FC01F999FECF9D
:1054400006C0F2BDE1BDF89A319600B40D9241500C
:105450005040B8F70895F894FFCF4D084808510818
:105460005A08620832086908160B160B4C0B4C0BD5
:10547000740B3C0B480C3C0B8E0BFB0B080C080C04
:1054800013283B281D293B281D296E288E281D29FD
:04549000E228EE28F8
:10549400900201000000010000000000000004016F
:1054A40000000000000001050000000000000106EB
:1054B4000000000407000000000000010B000000D1
:1054C4000000000021007F220007F4F5E222E6221A
:1054D400442340233C23E522014241534520434FCA
:1054E4004C454D414B004241534520515745525480
:1054F40059004C4F574552005241495345004144CD
:105504004A5553540058585858585800E200E90076
:10551400EA00B500B600B700CD008301CC008A01D3
:105524009201940121022302240225022602270269
:105534002A02B300B4006F007000818283E200E9A4
:1055440000EA00B500B600B700CD008301CC008AA4
:10555400019201940121022302240225022602273A
:10556400022A02B300B4006F007000818283F6F750
:10557400313332366697C634B70200081018202833
:105584003038383028201810080000FF01000100CE
:0A55940000FFFF0000010001FF000E
:00000001FF
